{
  "address": "0xA204e1D15eBd6C567799cF528c2F815904B7a390",
  "abi": [
    {
      "inputs": [
        {
          "internalType": "contract IWorldID",
          "name": "_worldId",
          "type": "address"
        },
        {
          "internalType": "string",
          "name": "_appId",
          "type": "string"
        },
        {
          "internalType": "string",
          "name": "_action",
          "type": "string"
        }
      ],
      "stateMutability": "nonpayable",
      "type": "constructor"
    },
    {
      "inputs": [],
      "name": "EmptyArgs",
      "type": "error"
    },
    {
      "inputs": [],
      "name": "EmptySource",
      "type": "error"
    },
    {
      "inputs": [],
      "name": "InvalidNullifier",
      "type": "error"
    },
    {
      "inputs": [],
      "name": "NoInlineSecrets",
      "type": "error"
    },
    {
      "inputs": [],
      "name": "OnlyRouterCanFulfill",
      "type": "error"
    },
    {
      "inputs": [
        {
          "internalType": "bytes32",
          "name": "requestId",
          "type": "bytes32"
        }
      ],
      "name": "UnexpectedRequestID",
      "type": "error"
    },
    {
      "anonymous": false,
      "inputs": [
        {
          "indexed": false,
          "internalType": "address",
          "name": "contractAddress",
          "type": "address"
        }
      ],
      "name": "ContractAuthorized",
      "type": "event"
    },
    {
      "anonymous": false,
      "inputs": [
        {
          "indexed": false,
          "internalType": "address",
          "name": "contractAddress",
          "type": "address"
        }
      ],
      "name": "ContractDeauthorized",
      "type": "event"
    },
    {
      "anonymous": false,
      "inputs": [
        {
          "indexed": false,
          "internalType": "uint256",
          "name": "insuranceid",
          "type": "uint256"
        }
      ],
      "name": "InsuranceAdded",
      "type": "event"
    },
    {
      "anonymous": false,
      "inputs": [
        {
          "indexed": false,
          "internalType": "address",
          "name": "insuree",
          "type": "address"
        },
        {
          "indexed": false,
          "internalType": "uint256",
          "name": "insuranceid",
          "type": "uint256"
        }
      ],
      "name": "InsuranceBought",
      "type": "event"
    },
    {
      "anonymous": false,
      "inputs": [
        {
          "indexed": false,
          "internalType": "address",
          "name": "insuree",
          "type": "address"
        },
        {
          "indexed": false,
          "internalType": "uint256",
          "name": "payout",
          "type": "uint256"
        }
      ],
      "name": "InsuranceClaimed",
      "type": "event"
    },
    {
      "anonymous": false,
      "inputs": [
        {
          "indexed": true,
          "internalType": "address",
          "name": "from",
          "type": "address"
        },
        {
          "indexed": true,
          "internalType": "address",
          "name": "to",
          "type": "address"
        }
      ],
      "name": "OwnershipTransferRequested",
      "type": "event"
    },
    {
      "anonymous": false,
      "inputs": [
        {
          "indexed": true,
          "internalType": "address",
          "name": "from",
          "type": "address"
        },
        {
          "indexed": true,
          "internalType": "address",
          "name": "to",
          "type": "address"
        }
      ],
      "name": "OwnershipTransferred",
      "type": "event"
    },
    {
      "anonymous": false,
      "inputs": [
        {
          "indexed": true,
          "internalType": "bytes32",
          "name": "id",
          "type": "bytes32"
        }
      ],
      "name": "RequestFulfilled",
      "type": "event"
    },
    {
      "anonymous": false,
      "inputs": [
        {
          "indexed": true,
          "internalType": "bytes32",
          "name": "id",
          "type": "bytes32"
        }
      ],
      "name": "RequestSent",
      "type": "event"
    },
    {
      "anonymous": false,
      "inputs": [
        {
          "indexed": true,
          "internalType": "bytes32",
          "name": "requestId",
          "type": "bytes32"
        },
        {
          "indexed": false,
          "internalType": "string",
          "name": "character",
          "type": "string"
        },
        {
          "indexed": false,
          "internalType": "bytes",
          "name": "response",
          "type": "bytes"
        },
        {
          "indexed": false,
          "internalType": "bytes",
          "name": "err",
          "type": "bytes"
        }
      ],
      "name": "Response",
      "type": "event"
    },
    {
      "anonymous": false,
      "inputs": [
        {
          "indexed": false,
          "internalType": "address",
          "name": "validator",
          "type": "address"
        }
      ],
      "name": "ValidatorAdded",
      "type": "event"
    },
    {
      "stateMutability": "payable",
      "type": "fallback"
    },
    {
      "inputs": [],
      "name": "acceptOwnership",
      "outputs": [],
      "stateMutability": "nonpayable",
      "type": "function"
    },
    {
      "inputs": [
        {
          "internalType": "uint256",
          "name": "",
          "type": "uint256"
        }
      ],
      "name": "alreadyFundedInsuranceProviders",
      "outputs": [
        {
          "internalType": "address",
          "name": "",
          "type": "address"
        }
      ],
      "stateMutability": "view",
      "type": "function"
    },
    {
      "inputs": [
        {
          "internalType": "uint256",
          "name": "insuranceid",
          "type": "uint256"
        },
        {
          "internalType": "uint256",
          "name": "root",
          "type": "uint256"
        },
        {
          "internalType": "uint256",
          "name": "nullifierHash",
          "type": "uint256"
        },
        {
          "internalType": "uint256[8]",
          "name": "proof",
          "type": "uint256[8]"
        }
      ],
      "name": "buy",
      "outputs": [],
      "stateMutability": "payable",
      "type": "function"
    },
    {
      "inputs": [],
      "name": "character",
      "outputs": [
        {
          "internalType": "string",
          "name": "",
          "type": "string"
        }
      ],
      "stateMutability": "view",
      "type": "function"
    },
    {
      "inputs": [
        {
          "internalType": "uint256",
          "name": "insuranceid",
          "type": "uint256"
        }
      ],
      "name": "claimInsurancePayout",
      "outputs": [
        {
          "internalType": "bytes32",
          "name": "",
          "type": "bytes32"
        }
      ],
      "stateMutability": "nonpayable",
      "type": "function"
    },
    {
      "inputs": [
        {
          "internalType": "address",
          "name": "",
          "type": "address"
        },
        {
          "internalType": "uint256",
          "name": "",
          "type": "uint256"
        }
      ],
      "name": "claimablePayout",
      "outputs": [
        {
          "internalType": "uint256",
          "name": "",
          "type": "uint256"
        }
      ],
      "stateMutability": "view",
      "type": "function"
    },
    {
      "inputs": [
        {
          "internalType": "uint256",
          "name": "insuranceid",
          "type": "uint256"
        }
      ],
      "name": "fundInsurance",
      "outputs": [
        {
          "internalType": "uint256",
          "name": "",
          "type": "uint256"
        }
      ],
      "stateMutability": "payable",
      "type": "function"
    },
    {
      "inputs": [],
      "name": "getFundedInsuranceProviders",
      "outputs": [
        {
          "internalType": "address[]",
          "name": "",
          "type": "address[]"
        }
      ],
      "stateMutability": "view",
      "type": "function"
    },
    {
      "inputs": [
        {
          "internalType": "uint256",
          "name": "insuranceid",
          "type": "uint256"
        }
      ],
      "name": "getInsuranceFunds",
      "outputs": [
        {
          "internalType": "uint256",
          "name": "",
          "type": "uint256"
        }
      ],
      "stateMutability": "view",
      "type": "function"
    },
    {
      "inputs": [],
      "name": "getInsuranceProviders",
      "outputs": [
        {
          "internalType": "address[]",
          "name": "",
          "type": "address[]"
        }
      ],
      "stateMutability": "view",
      "type": "function"
    },
    {
      "inputs": [
        {
          "internalType": "bytes32",
          "name": "requestId",
          "type": "bytes32"
        },
        {
          "internalType": "bytes",
          "name": "response",
          "type": "bytes"
        },
        {
          "internalType": "bytes",
          "name": "err",
          "type": "bytes"
        }
      ],
      "name": "handleOracleFulfillment",
      "outputs": [],
      "stateMutability": "nonpayable",
      "type": "function"
    },
    {
      "inputs": [
        {
          "internalType": "uint256",
          "name": "",
          "type": "uint256"
        },
        {
          "internalType": "address",
          "name": "",
          "type": "address"
        }
      ],
      "name": "hasProvidedLiquidity",
      "outputs": [
        {
          "internalType": "bool",
          "name": "",
          "type": "bool"
        }
      ],
      "stateMutability": "view",
      "type": "function"
    },
    {
      "inputs": [],
      "name": "insuranceId",
      "outputs": [
        {
          "internalType": "uint256",
          "name": "",
          "type": "uint256"
        }
      ],
      "stateMutability": "view",
      "type": "function"
    },
    {
      "inputs": [
        {
          "internalType": "uint256",
          "name": "",
          "type": "uint256"
        }
      ],
      "name": "insuranceIds",
      "outputs": [
        {
          "internalType": "uint256",
          "name": "",
          "type": "uint256"
        }
      ],
      "stateMutability": "view",
      "type": "function"
    },
    {
      "inputs": [
        {
          "internalType": "uint256",
          "name": "",
          "type": "uint256"
        }
      ],
      "name": "insuranceliquidity",
      "outputs": [
        {
          "internalType": "uint256",
          "name": "",
          "type": "uint256"
        }
      ],
      "stateMutability": "view",
      "type": "function"
    },
    {
      "inputs": [
        {
          "internalType": "uint256",
          "name": "",
          "type": "uint256"
        },
        {
          "internalType": "uint256",
          "name": "",
          "type": "uint256"
        }
      ],
      "name": "insurancelps",
      "outputs": [
        {
          "internalType": "address",
          "name": "",
          "type": "address"
        }
      ],
      "stateMutability": "view",
      "type": "function"
    },
    {
      "inputs": [
        {
          "internalType": "uint256",
          "name": "",
          "type": "uint256"
        }
      ],
      "name": "insurances",
      "outputs": [
        {
          "internalType": "bool",
          "name": "isRegistered",
          "type": "bool"
        },
        {
          "internalType": "uint256",
          "name": "start",
          "type": "uint256"
        },
        {
          "internalType": "uint256",
          "name": "end",
          "type": "uint256"
        },
        {
          "internalType": "enum InsuranceData.TypeOfInsurance",
          "name": "typeOfIns",
          "type": "uint8"
        },
        {
          "internalType": "address",
          "name": "provider",
          "type": "address"
        },
        {
          "internalType": "string",
          "name": "lat",
          "type": "string"
        },
        {
          "internalType": "string",
          "name": "lon",
          "type": "string"
        },
        {
          "internalType": "string",
          "name": "name",
          "type": "string"
        },
        {
          "internalType": "string",
          "name": "description",
          "type": "string"
        },
        {
          "internalType": "uint256",
          "name": "riskNumerator",
          "type": "uint256"
        },
        {
          "internalType": "uint256",
          "name": "riskDenominator",
          "type": "uint256"
        }
      ],
      "stateMutability": "view",
      "type": "function"
    },
    {
      "inputs": [
        {
          "internalType": "address",
          "name": "registeredInsuranceProviderAddress",
          "type": "address"
        }
      ],
      "name": "isInsuranceProviderRegistered",
      "outputs": [
        {
          "internalType": "bool",
          "name": "",
          "type": "bool"
        }
      ],
      "stateMutability": "view",
      "type": "function"
    },
    {
      "inputs": [
        {
          "internalType": "uint256",
          "name": "insuranceid",
          "type": "uint256"
        }
      ],
      "name": "isNotInsured",
      "outputs": [
        {
          "internalType": "bool",
          "name": "",
          "type": "bool"
        }
      ],
      "stateMutability": "view",
      "type": "function"
    },
    {
      "inputs": [
        {
          "internalType": "uint256",
          "name": "",
          "type": "uint256"
        },
        {
          "internalType": "address",
          "name": "",
          "type": "address"
        }
      ],
      "name": "liquidityperlp",
      "outputs": [
        {
          "internalType": "uint256",
          "name": "",
          "type": "uint256"
        }
      ],
      "stateMutability": "view",
      "type": "function"
    },
    {
      "inputs": [],
      "name": "numOfInsuranceProviders",
      "outputs": [
        {
          "internalType": "uint256",
          "name": "count",
          "type": "uint256"
        }
      ],
      "stateMutability": "view",
      "type": "function"
    },
    {
      "inputs": [
        {
          "internalType": "uint256",
          "name": "",
          "type": "uint256"
        }
      ],
      "name": "numliquidityproviders",
      "outputs": [
        {
          "internalType": "uint256",
          "name": "",
          "type": "uint256"
        }
      ],
      "stateMutability": "view",
      "type": "function"
    },
    {
      "inputs": [],
      "name": "owner",
      "outputs": [
        {
          "internalType": "address",
          "name": "",
          "type": "address"
        }
      ],
      "stateMutability": "view",
      "type": "function"
    },
    {
      "inputs": [
        {
          "internalType": "uint256",
          "name": "insuranceid",
          "type": "uint256"
        },
        {
          "internalType": "address",
          "name": "insuree",
          "type": "address"
        }
      ],
      "name": "payout",
      "outputs": [
        {
          "internalType": "uint256",
          "name": "",
          "type": "uint256"
        }
      ],
      "stateMutability": "nonpayable",
      "type": "function"
    },
    {
      "inputs": [
        {
          "internalType": "uint256",
          "name": "",
          "type": "uint256"
        }
      ],
      "name": "providers",
      "outputs": [
        {
          "internalType": "address",
          "name": "",
          "type": "address"
        }
      ],
      "stateMutability": "view",
      "type": "function"
    },
    {
      "inputs": [
        {
          "internalType": "string",
          "name": "_insuranceName",
          "type": "string"
        },
        {
          "internalType": "uint256",
          "name": "_start",
          "type": "uint256"
        },
        {
          "internalType": "uint256",
          "name": "_end",
          "type": "uint256"
        },
        {
          "internalType": "enum InsuranceData.TypeOfInsurance",
          "name": "_typeOfIns",
          "type": "uint8"
        },
        {
          "internalType": "string",
          "name": "_lat",
          "type": "string"
        },
        {
          "internalType": "string",
          "name": "_lon",
          "type": "string"
        },
        {
          "internalType": "string",
          "name": "_description",
          "type": "string"
        },
        {
          "internalType": "uint256",
          "name": "_riskNumerator",
          "type": "uint256"
        },
        {
          "internalType": "uint256",
          "name": "_riskDenominator",
          "type": "uint256"
        }
      ],
      "name": "registerInsurance",
      "outputs": [
        {
          "internalType": "uint256",
          "name": "",
          "type": "uint256"
        }
      ],
      "stateMutability": "payable",
      "type": "function"
    },
    {
      "inputs": [
        {
          "internalType": "address",
          "name": "_provider",
          "type": "address"
        }
      ],
      "name": "registerInsuranceProvider",
      "outputs": [
        {
          "internalType": "bool",
          "name": "successfulRegistration",
          "type": "bool"
        }
      ],
      "stateMutability": "nonpayable",
      "type": "function"
    },
    {
      "inputs": [],
      "name": "registerValidator",
      "outputs": [],
      "stateMutability": "nonpayable",
      "type": "function"
    },
    {
      "inputs": [],
      "name": "s_lastError",
      "outputs": [
        {
          "internalType": "bytes",
          "name": "",
          "type": "bytes"
        }
      ],
      "stateMutability": "view",
      "type": "function"
    },
    {
      "inputs": [],
      "name": "s_lastRequestId",
      "outputs": [
        {
          "internalType": "bytes32",
          "name": "",
          "type": "bytes32"
        }
      ],
      "stateMutability": "view",
      "type": "function"
    },
    {
      "inputs": [],
      "name": "s_lastResponse",
      "outputs": [
        {
          "internalType": "bytes",
          "name": "",
          "type": "bytes"
        }
      ],
      "stateMutability": "view",
      "type": "function"
    },
    {
      "inputs": [
        {
          "internalType": "address",
          "name": "to",
          "type": "address"
        }
      ],
      "name": "transferOwnership",
      "outputs": [],
      "stateMutability": "nonpayable",
      "type": "function"
    },
    {
      "stateMutability": "payable",
      "type": "receive"
    }
  ],
  "transactionHash": "0xdd408ffc41615dd13e01e9ea3956177eee167c6f28b24ff764f14ac04bdc0ce2",
  "args": [
    "0x469449f251692E0779667583026b5A1E99512157",
    "app_staging_82d304654019266eb39a83b29a806fe2",
    "inslogin"
  ],
  "numDeployments": 1,
  "solcInputHash": "d8f0130abf0e5016a76c7687faabc7db",
  "bytecode": "0x610100604081815234620004dc57620043518038038091620000228286620004e1565b8439820191606081840312620004dc5780516001600160a01b03939091908483168303620004dc5760208281015190926001600160401b03929091838111620004dc57816200007391840162000540565b9286830151908111620004dc576200008c920162000540565b9260185495861660805233156200049857600080546001600160a01b03199081163317825596871673b83e47c2bc239b3bf370bc41e1459a34b41238d017601855601954600181811c9891811680156200048d575b868a1014620004795788601f899a9998991162000435575b87620003f98a620003c6838b620003cc8c8c8c8c6103b9601955601982527f6e6728646174612e726573756c742b646174612e6a6f625f6964293b00000000600e8784207f636f6e737420696e737572616e63654964203d20617267735b305d3b636f6e7381557f7420696e737572616e636554797065203d20617267735b315d3b636f6e73742060018201557f6c6174203d20617267735b325d3b636f6e7374206c6f6e203d20617267735b3360028201557f5d3b636f6e73742061667465725473203d20617267735b345d3b636f6e73742060038201557f6265666f72655473203d20617267735b355d3b636f6e7374206170695265737060048201557f6f6e7365203d2061776169742046756e6374696f6e732e6d616b65487474705260058201557f657175657374287b75726c3a206068747470733a2f2f73776170692e696e666f60068201557f2f6170692f696e737572616e63652f247b696e737572616e636549647d3f747960078201557f70653d247b696e737572616e6365547970657d266c61743d247b6c61747d266c60088201557f6f6e3d247b6c6f6e7d2661667465723d247b616674657254737d266265666f7260098201557f653d247b6265666f726554737d607d293b69662028617069526573706f6e7365600a8201557f2e6572726f7229207b7468726f77204572726f72282752657175657374206661600b8201557f696c656427293b7d636f6e7374207b2064617461207d203d2061706952657370600c8201557f6f6e73653b72657475726e2046756e6374696f6e732e656e636f646553747269600d8201550155620493e063ffffffff19601a541617601a557f66756e2d657468657265756d2d7365706f6c69612d3100000000000000000000601b553390600554161760055560145560a052600160e052620003c683855183620003b882955180928580860191016200051b565b8101038084520182620004e1565b6200059b565b825194859183830152620003e9815180928587860191016200051b565b81010390810184520182620004e1565b60c05251613d8c9081620005c5823960805181818161038e0152613183015260a05181611392015260c05181611443015260e051816114650152f35b60198452868420600f8101999897969594939291601f0160051c015b808a10620004695750819293949596979850620000f9565b838a55988101988a975062000451565b634e487b7160e01b83526022600452602483fd5b98607f1698620000e1565b845162461bcd60e51b815260048101849052601860248201527f43616e6e6f7420736574206f776e657220746f207a65726f00000000000000006044820152606490fd5b600080fd5b601f909101601f19168101906001600160401b038211908210176200050557604052565b634e487b7160e01b600052604160045260246000fd5b60005b8381106200052f5750506000910152565b81810151838201526020016200051e565b81601f82011215620004dc5780516001600160401b03811162000505576040519262000577601f8301601f191660200185620004e1565b81845260208284010111620004dc576200059891602080850191016200051b565b90565b604051620005bb60208281620003b881830196878151938492016200051b565b51902060081c9056fe60806040526004361015610018575b361561001657005b005b60003560e01c80630ca761751461021357806315bef4501461020e5780631ffe7b8a1461020957806321241418146102045780632f8ff3a2146101ff5780633944ea3a146101fa57806343060539146101f557806347709966146101f05780634b0795a8146101eb5780634d2e03a0146101e65780634d7fedfa146101e157806350f3fc81146101dc57806351ca570a146101d757806352ac183b146101d257806359fb49f9146101cd5780635acf77b0146101c857806369e88be7146101825780636de994c5146101c35780637751a3d4146101be57806379ba5097146101b9578063804b071a146101b457806383cb0c81146101af5780638da5cb5b146101aa578063b1e21749146101a5578063b5bc78ed146101a0578063b6b1ccf01461019b578063b8e12d4e14610196578063bcc6587f14610191578063be95e01a1461018c578063cfa29c4414610187578063d0beac3f146101825763f2fde38b0361000e57611d36565b611266565b611d0a565b611b9e565b611afc565b611aaa565b611a50565b6119ff565b6119e1565b6119ba565b611936565b6117aa565b6116b4565b61134a565b611292565b611248565b6111b3565b610f5e565b610f25565b610ecb565b610e61565b610d7b565b610b68565b610b29565b610ad6565b6109f1565b6107ba565b61072a565b610622565b610597565b610336565b7f4e487b7100000000000000000000000000000000000000000000000000000000600052604160045260246000fd5b67ffffffffffffffff811161025b57604052565b610218565b6040810190811067ffffffffffffffff82111761025b57604052565b90601f601f19910116810190811067ffffffffffffffff82111761025b57604052565b60405190610160820182811067ffffffffffffffff82111761025b57604052565b67ffffffffffffffff811161025b57601f01601f191660200190565b9291926102e8826102c0565b916102f6604051938461027c565b829481845281830111610313578281602093846000960137010152565b600080fd5b9080601f8301121561031357816020610333933591016102dc565b90565b346103135760606003193601126103135760043567ffffffffffffffff6024358181116103135761036b903690600401610318565b60443582811161031357610383903690600401610318565b916001600160a01b037f000000000000000000000000000000000000000000000000000000000000000016330361054157836002540361051057815190811161025b576103da816103d5600354610802565b611ef3565b602080601f83116001146104835750916104128261041a9361041f9695600091610478575b506000198260011b9260031b1c19161790565b60035561203a565b6129cf565b807f160ed0aaffbef6885155188b91459cb5a97d5daadccf7561d8c46deea6641b506040518061044e81612ab3565b0390a27f85e1543bf2f84fe80c6badbce3648c8539ad1df4d2b3d822938ca0538be727e6600080a2005b9050830151386103ff565b600360005290601f1983167fc2575a0e9e593c00f959f8c92f12db2869c3395a3b0502d05e2516446f71f85b926000905b8282106104f85750509261041f9594926001928261041a96106104df575b5050811b0160035561203a565b84015160001960f88460031b161c1916905538806104d2565b80600185968294968a015181550195019301906104b4565b602484604051907fd068bf5b0000000000000000000000000000000000000000000000000000000082526004820152fd5b60046040517fc6829f83000000000000000000000000000000000000000000000000000000008152fd5b602435906001600160a01b038216820361031357565b600435906001600160a01b038216820361031357565b346103135760406003193601126103135760206105dc6105b561056b565b600435600052600f83526040600020906001600160a01b0316600052602052604060002090565b54604051908152f35b9181601f840112156103135782359167ffffffffffffffff8311610313576020838186019501011161031357565b60643590600382101561031357565b6101206003193601126103135767ffffffffffffffff600435818111610313576106509036906004016105e5565b61065b929192610613565b92608435838111610313576106749036906004016105e5565b9460a4358581116103135761068d9036906004016105e5565b9060c435968711610313576106d6976106ad6106c69836906004016105e5565b959094610104359860e43598604435916024359161243d565b6040519081529081906020820190565b0390f35b600091031261031357565b602090602060408183019282815285518094520193019160005b82811061070d575050505090565b83516001600160a01b0316855293810193928101926001016106ff565b3461031357600060031936011261031357604051806008549182815260208091019260086000527ff3f7a9fe364faab93b216da50a3214154f22a0a2b415b23a84c8169e8b636ee3916000905b82821061079a576106d68561078e8189038261027c565b604051918291826106e5565b83546001600160a01b031686529485019460019384019390910190610777565b34610313576040600319360112610313576001600160a01b036107db610581565b16600052600d60205260406000206024356000526020526020604060002054604051908152f35b90600182811c9216801561084b575b602083101461081c57565b7f4e487b7100000000000000000000000000000000000000000000000000000000600052602260045260246000fd5b91607f1691610811565b6003546000929161086582610802565b808252916020906001908181169081156108e45750600114610888575b50505050565b9293945060036000527fc2575a0e9e593c00f959f8c92f12db2869c3395a3b0502d05e2516446f71f85b926000935b8585106108d1575050506020925001019038808080610882565b80548585018401529382019381016108b7565b915050602094955060ff1991509291921683830152151560051b01019038808080610882565b6004546000929161091a82610802565b808252916020906001908181169081156108e4575060011461093c5750505050565b9293945060046000527f8a35acfbc15ff81a39ae7d344fd709f28e8600b4aa8c65c6b64bfe7fe36bd19b926000935b858510610985575050506020925001019038808080610882565b805485850184015293820193810161096b565b60005b8381106109ab5750506000910152565b818101518382015260200161099b565b90601f19601f6020936109d981518092818752878088019101610998565b0116010190565b9060206103339281815201906109bb565b3461031357600080600319360112610ad357604051908060035490610a1582610802565b80855291602091600191828116908115610aa65750600114610a4e575b6106d686610a428188038261027c565b604051918291826109e0565b9350600384527fc2575a0e9e593c00f959f8c92f12db2869c3395a3b0502d05e2516446f71f85b5b838510610a9357505050508101602001610a42826106d638610a32565b8054868601840152938201938101610a76565b8796506106d697945060209350610a4295925060ff1991501682840152151560051b820101929338610a32565b80fd5b3461031357604060031936011261031357602060ff610b1d610af661056b565b600435600052600c84526040600020906001600160a01b0316600052602052604060002090565b54166040519015158152f35b34610313576020600319360112610313576001600160a01b03610b4a610581565b166000526006602052602060ff604060002054166040519015158152f35b3461031357600080600319360112610ad357604051908060045490610b8c82610802565b80855291602091600191828116908115610aa65750600114610bb8576106d686610a428188038261027c565b9350600484527f8a35acfbc15ff81a39ae7d344fd709f28e8600b4aa8c65c6b64bfe7fe36bd19b5b838510610bfd57505050508101602001610a42826106d638610a32565b8054868601840152938201938101610be0565b6040519060008260195491610c2483610802565b80835292602090600190818116908115610cb25750600114610c51575b5050610c4f9250038361027c565b565b91509260196000527f944998273e477b495144fb8794c914197f3ccb46be2900f4698fd0ef743c9695936000925b828410610c9a5750610c4f9450505081016020013880610c41565b85548885018301529485019487945092810192610c7f565b905060209350610c4f95925060ff1991501682840152151560051b8201013880610c41565b90604051918260008254610cea81610802565b90818452602094600191600181169081600014610d585750600114610d19575b505050610c4f9250038361027c565b600090815285812095935091905b818310610d40575050610c4f9350820101388080610d0a565b85548884018501529485019487945091830191610d27565b915050610c4f95935060ff1991501682840152151560051b820101388080610d0a565b3461031357600080600319360112610ad357604051908082601c5491610da083610802565b9283835260209460019186600182169182600014610e3e575050600114610de4575b5050610dd09250038361027c565b6106d66040519282849384528301906109bb565b90859250601c82527f0e4562a10381dec21b205ed72637e6b1b523bdd0e4d4d50af5cd23dd4500a2115b858310610e26575050610dd093508201013880610dc2565b80548389018501528794508693909201918101610e0e565b91509350610dd095925060ff1991501682840152151560051b8201013880610dc2565b34610313576000600319360112610313576020600754604051908152f35b7f4e487b7100000000000000000000000000000000000000000000000000000000600052603260045260246000fd5b8054821015610ec65760005260206000200190600090565b610e7f565b3461031357602060031936011261031357600435600754811015610313576001600160a01b0360209160076000527fa66cc928b5edb82af9bd49922954155ab7b0942694bea4ce44661d9a8736c688015416604051908152f35b34610313576020600319360112610313573360005260126020526040600020600435600052602052602060406000205415604051908152f35b60206003193601126103135760043580600052600c60205260ff610f986040600020336001600160a01b0316600052602052604060002090565b5416156110565780610fb76106d6926000526009602052604060002090565b610fc18154612429565b9055610fe2610fda82600052600b602052604060002090565b5434906125b5565b610ff682600052600b602052604060002090565b556110143361100f83600052600a602052604060002090565b61236c565b346110453361102d84600052600f602052604060002090565b906001600160a01b0316600052602052604060002090565b556040519081529081906020820190565b60a460405162461bcd60e51b815260206004820152604b60248201527f546865206c69717569646974792070726f76696465722068617320616c72656160448201527f64792070726f766973696f6e6564206c697175696469747920666f722074686960648201527f7320696e737572616e63650000000000000000000000000000000000000000006084820152fd5b7f4e487b7100000000000000000000000000000000000000000000000000000000600052602160045260246000fd5b6003111561111f57565b6110e6565b97939561117d916001600160a01b03611199979c9e9d9c6101409c9961118b9760408e6111a89e9961016097151582526020820152015261116481611115565b60608d01521660808b01528060a08b01528901906109bb565b9087820360c08901526109bb565b9085820360e08701526109bb565b908382036101008501526109bb565b946101208201520152565b3461031357602060031936011261031357600435600052600e602052604060002060ff8154166106d660018301549160028401549360038101546111f960048301610cd7565b61120560058401610cd7565b61121160068501610cd7565b9161121e60078601610cd7565b9360096008870154960154966040519a8b9a60ff6001600160a01b038560081c169416928c611124565b34610313576000600319360112610313576020601454604051908152f35b3461031357602060031936011261031357600435600052600b6020526020604060002054604051908152f35b34610313576020600319360112610313576001600160a01b036112b3610581565b168060005260066020526040600020600160ff198254161790556007546801000000000000000081101561025b576001810180600755811015610ec65760076000527fa66cc928b5edb82af9bd49922954155ab7b0942694bea4ce44661d9a8736c68801907fffffffffffffffffffffffff0000000000000000000000000000000000000000825416179055602060405160018152f35b6101606003193601126103135760043560443536610164116103135761138461137d82600052601d602052604060002090565b5460ff1690565b61168a576001600160a01b037f00000000000000000000000000000000000000000000000000000000000000001690611406604051611401816113f333602083017fffffffffffffffffffffffffffffffffffffffff00000000000000000000000060149260601b1681520190565b03601f19810183528261027c565b612b97565b91803b15610313576114909260009160405180809681947f3bc778e3000000000000000000000000000000000000000000000000000000008352877f0000000000000000000000000000000000000000000000000000000000000000917f0000000000000000000000000000000000000000000000000000000000000000602435600487016125c2565b03915afa908115611685576114c6926114b99261166c575b50600052601d602052604060002090565b600160ff19825416179055565b6115086115036114ff61137d846114f0336001600160a01b03166000526010602052604060002090565b90600052602052604060002090565b1590565b6125fb565b61151334151561266c565b611534600961152c83600052600e602052604060002090565b0154346126f3565b61155361154b83600052600b602052604060002090565b548210612706565b61157261156a83600052600b602052604060002090565b541515612751565b611593826114f0336001600160a01b0316600052600d602052604060002090565b556115b86114b9826114f0336001600160a01b03166000526010602052604060002090565b6115d03361100f836000526011602052604060002090565b346115f2826114f0336001600160a01b03166000526012602052604060002090565b5560005b61160a82600052600a602052604060002090565b5481101561161a576001016115f6565b60408051338152602081018490526000916116699185917fb54ae6df4548fec2c87618979584a234918d0b316ae59007568ff6be22d7a0bc91a161102d33916000526013602052604060002090565b55005b8061167961167f92610247565b806106da565b386114a8565b6125ef565b60046040517f5d904cb2000000000000000000000000000000000000000000000000000000008152fd5b3461031357600080600319360112610ad3576001600160a01b03806001541633036117665781546001600160a01b0316600080547fffffffffffffffffffffffff000000000000000000000000000000000000000016331790559061173c7fffffffffffffffffffffffff000000000000000000000000000000000000000060015416600155565b3391167f8be0079c531659141344cd1fd0a4f28419497f9722a3daafe3b4186f6b6457e08380a380f35b606460405162461bcd60e51b815260206004820152601660248201527f4d7573742062652070726f706f736564206f776e6572000000000000000000006044820152fd5b34610313576020600319360112610313576119186119136119016004356118c660406117e86117e384600052600e602052604060002090565b6127c2565b61181461180f61137d866114f0336001600160a01b03166000526010602052604060002090565b612886565b61182561181f6128d1565b94612bfb565b61182e85612914565b5261183884612914565b50611858606082015161184a81611115565b61185381611115565b612bfb565b61186185612921565b5261186b84612921565b5060a081015161187a85612931565b5261188484612931565b5060c081015161189385612941565b5261189d84612941565b506118ab6020820151612bfb565b6118b485612951565b526118be84612951565b500151612bfb565b6118cf82612961565b526118d981612961565b506118e2612985565b906118f46118ee610c10565b8361320d565b8051611926575b50612f1c565b601a5463ffffffff16601b5491613111565b600255565b600254604051908152602090f35b6119309082612d4c565b386118fb565b3461031357600060031936011261031357604051806007549182815260208091019260076000527fa66cc928b5edb82af9bd49922954155ab7b0942694bea4ce44661d9a8736c688916000905b82821061199a576106d68561078e8189038261027c565b83546001600160a01b031686529485019460019384019390910190611983565b346103135760006003193601126103135760206001600160a01b0360005416604051908152f35b34610313576000600319360112610313576020600254604051908152f35b34610313576020600319360112610313576004356016548110156103135760209060166000527fd833147d7dc355ba459fc788f669e58cfaf9dc25ddcd0702e87d69c7b51242890154604051908152f35b3461031357602060031936011261031357600435600854811015610313576001600160a01b0360209160086000527ff3f7a9fe364faab93b216da50a3214154f22a0a2b415b23a84c8169e8b636ee3015416604051908152f35b3461031357604060031936011261031357602435600435600052600a602052604060002090815481101561031357611aec6001600160a01b0391602093610eae565b9190546040519260031b1c168152f35b3461031357600080600319360112610ad357338152601760205260ff604082205416611b5a57611b2b336122ee565b6040513381527fe366c1c0452ed8eec96861e9e54141ebff23c9ec89fe27b996b45f5ec388498790602090a180f35b606460405162461bcd60e51b815260206004820152601f60248201527f56616c696461746f7220697320616c72656164792072656769737465726564006044820152fd5b3461031357604060031936011261031357600435611bba61056b565b6000908282526013602052611be58160408420906001600160a01b0316600052602052604060002090565b54611ca057611c0b836114f0836001600160a01b0316600052600d602052604060002090565b54918083818115611c97575b829182916001600160a01b03871690f11561168557818181611c6b7fd1ecb6c48be11bc10ebf5b0c43978edf1b7fcbc3f5adb6a5ea66952d6a73f72a9461102d6106d6986000526013602052604060002090565b55604080516001600160a01b039290921682526020820192909252a16040519081529081906020820190565b506108fc611c17565b608460405162461bcd60e51b815260206004820152602560248201527f54686520636c69656e742068617320616c726561647920636c61696d6564207060448201527f61796f75740000000000000000000000000000000000000000000000000000006064820152fd5b346103135760206003193601126103135760043560005260096020526020604060002054604051908152f35b3461031357602060031936011261031357611d4f610581565b6001600160a01b03806000541691823303611e02571690338214611dbe57817fffffffffffffffffffffffff000000000000000000000000000000000000000060015416176001557fed8889f560326eb138920d842192f0eb3dd22b4f139c87a2c57538e05bae1278600080a3005b606460405162461bcd60e51b815260206004820152601760248201527f43616e6e6f74207472616e7366657220746f2073656c660000000000000000006044820152fd5b606460405162461bcd60e51b815260206004820152601660248201527f4f6e6c792063616c6c61626c65206279206f776e6572000000000000000000006044820152fd5b15611e4d57565b608460405162461bcd60e51b815260206004820152603060248201527f54686520696e737572616e63652070726f76696465722073686f756c6420667560448201527f6e642074686520696e737572616e6365000000000000000000000000000000006064820152fd5b611ec082611115565b52565b90611ecd81611115565b60ff60ff198354169116179055565b818110611ee7575050565b60008155600101611edc565b90601f8211611f00575050565b610c4f9160036000527fc2575a0e9e593c00f959f8c92f12db2869c3395a3b0502d05e2516446f71f85b906020601f840160051c83019310611f4a575b601f0160051c0190611edc565b9091508190611f3d565b90601f8211611f61575050565b610c4f91601c6000527f0e4562a10381dec21b205ed72637e6b1b523bdd0e4d4d50af5cd23dd4500a211906020601f840160051c83019310611f4a57601f0160051c0190611edc565b90601f8211611fb7575050565b610c4f9160046000527f8a35acfbc15ff81a39ae7d344fd709f28e8600b4aa8c65c6b64bfe7fe36bd19b906020601f840160051c83019310611f4a57601f0160051c0190611edc565b9190601f811161200f57505050565b610c4f926000526020600020906020601f840160051c83019310611f4a57601f0160051c0190611edc565b90815167ffffffffffffffff811161025b576120608161205b601c54610802565b611f54565b602080601f83116001146120a2575081906120929394600092612097575b50506000198260011b9260031b1c19161790565b601c55565b01519050388061207e565b90601f198316946120d5601c6000527f0e4562a10381dec21b205ed72637e6b1b523bdd0e4d4d50af5cd23dd4500a21190565b926000905b8782106121125750508360019596106120f9575b505050811b01601c55565b015160001960f88460031b161c191690553880806120ee565b806001859682949686015181550195019301906120da565b919091825167ffffffffffffffff811161025b576121528161214c8454610802565b84612000565b602080601f8311600114612188575081906121849394956000926120975750506000198260011b9260031b1c19161790565b9055565b90601f1983169561219e85600052602060002090565b926000905b8882106121db575050836001959697106121c2575b505050811b019055565b015160001960f88460031b161c191690553880806121b8565b806001859682949686015181550195019301906121a3565b9061014060099161221a6122078251151590565b859060ff60ff1983541691151516179055565b60208101516001850155604081015160028501556122976003850161224c606084015161224681611115565b82611ec3565b608083015181547fffffffffffffffffffffff0000000000000000000000000000000000000000ff1660089190911b74ffffffffffffffffffffffffffffffffffffffff0016179055565b6122a860a08201516004860161212a565b6122b960c08201516005860161212a565b6122ca60e08201516006860161212a565b6122dc6101008201516007860161212a565b61012081015160088501550151910155565b6015546801000000000000000081101561025b576001810180601555811015610ec6576001600160a01b039060156000527f55f448fdea98c4d29eb340757ef0a66cd03dbb9538908a6a81d96026b71ec4750191167fffffffffffffffffffffffff0000000000000000000000000000000000000000825416179055565b80546801000000000000000081101561025b5761238e91600182018155610eae565b6001600160a01b039291928084549260031b9316831b921b1916179055565b6016546801000000000000000081101561025b576001810180601655811015610ec65760166000527fd833147d7dc355ba459fc788f669e58cfaf9dc25ddcd0702e87d69c7b51242890155565b7f4e487b7100000000000000000000000000000000000000000000000000000000600052601160045260246000fd5b60001981146124385760010190565b6123fa565b9694929b9a9997939095919b34151561245590611e46565b61245d61029f565b600181529c8d6020015260408d01526124799060608d01611eb7565b3360808c0152369061248a926102dc565b60a08a0152369061249a926102dc565b60c088015236906124aa926102dc565b60e086015236906124ba926102dc565b61010084015261012083015261014082015260149081546124e590600052600e602052604060002090565b906124ef916121f3565b33815461250690600052600a602052604060002090565b906125109161236c565b805461251b906123ad565b34815461253290600052600b602052604060002090565b553433825461254b90600052600f602052604060002090565b9061256891906001600160a01b0316600052602052604060002090565b5580546040518181527fa1467d518e9fa2c94583b5b96dc6d322c27e6ddfbbc24450b818b91c909046a690602090a16125a090612429565b6014555490565b906020820180921161243857565b9190820180921161243857565b9095946101009460649460a0946101a0850199855260208501526040840152606083015260808201520137565b6040513d6000823e3d90fd5b1561260257565b608460405162461bcd60e51b815260206004820152603360248201527f54686520636c69656e742068617320616c72656164792074616b656e2074686960448201527f732074797065206f6620696e737572616e6365000000000000000000000000006064820152fd5b1561267357565b608460405162461bcd60e51b815260206004820152602b60248201527f54686520636c69656e742073686f756c642073656e642045544820746f20627560448201527f7920696e737572616e63650000000000000000000000000000000000000000006064820152fd5b908160011b918083046002149015171561243857565b8181029291811591840414171561243857565b1561270d57565b606460405162461bcd60e51b815260206004820152601c60248201527f596f752073686f756c64206275792077697468206c65737320455448000000006044820152fd5b1561275857565b608460405162461bcd60e51b815260206004820152602b60248201527f4c697175696469747920646f6573206e6f7420657869737420666f722074686960448201527f7320696e737572616e63650000000000000000000000000000000000000000006064820152fd5b9060096127cd61029f565b926127e26127dc825460ff1690565b15158552565b600181015460208501526002810154604085015261282c6001600160a01b03600383015461281660ff821660608901611eb7565b60081c1660808601906001600160a01b03169052565b61283860048201610cd7565b60a085015261284960058201610cd7565b60c085015261285a60068201610cd7565b60e085015261286b60078201610cd7565b61010085015260088101546101208501520154610140830152565b1561288d57565b606460405162461bcd60e51b815260206004820152601e60248201527f436c69656e7420646f6573206e6f74206861766520696e737572616e636500006044820152fd5b6040519060e0820182811067ffffffffffffffff82111761025b57604052600682528160005b60c08110612903575050565b8060606020809385010152016128f7565b805115610ec65760200190565b805160011015610ec65760400190565b805160021015610ec65760600190565b805160031015610ec65760800190565b805160041015610ec65760a00190565b805160051015610ec65760c00190565b8051821015610ec65760209160051b010190565b6040519060e0820182811067ffffffffffffffff82111761025b57604052606060c08360008152600060208201526000604082015282808201528260808201528260a08201520152565b90815167ffffffffffffffff811161025b576129f5816129f0600454610802565b611faa565b602080601f8311600114612a2b57508190612a2693946000926120975750506000198260011b9260031b1c19161790565b600455565b90601f19831694612a5e60046000527f8a35acfbc15ff81a39ae7d344fd709f28e8600b4aa8c65c6b64bfe7fe36bd19b90565b926000905b878210612a9b575050836001959610612a82575b505050811b01600455565b015160001960f88460031b161c19169055388080612a77565b80600185968294968601518155019501930190612a63565b9060608252600091601c54612ac781610802565b806060840152608091600190600181169081600014612b6d5750600114612b0f575b505050612b0183826103339495036020840152610855565b90604081830391015261090a565b601c600090815295507f0e4562a10381dec21b205ed72637e6b1b523bdd0e4d4d50af5cd23dd4500a2115b828710612b58575050505091820160800191612b0161033338612ae9565b80548786018501526020909601958101612b3a565b610333969750612b019450608093925060ff1991501682850152151560051b830101939238612ae9565b604051612bc160208281612bb48183019687815193849201610998565b810103808452018261027c565b51902060081c90565b90612bd4826102c0565b612be1604051918261027c565b828152601f19612bf182946102c0565b0190602036910137565b806000917a184f03e93ff9f4daa797ed6e38ed64bf6a1f01000000000000000080821015612d3e575b506d04ee2d6d415b85acef810000000080831015612d2f575b50662386f26fc1000080831015612d20575b506305f5e10080831015612d11575b5061271080831015612d02575b506064821015612cf2575b600a80921015612ce8575b600190816021612c9360018701612bca565b95860101905b612ca5575b5050505090565b600019849101917f30313233343536373839616263646566000000000000000000000000000000008282061a835304918215612ce357919082612c99565b612c9e565b9160010191612c81565b9190606460029104910191612c76565b60049193920491019138612c6b565b60089193920491019138612c5e565b60109193920491019138612c4f565b60209193920491019138612c3d565b604093508104915038612c24565b815115612d595760a00152565b60046040517ffe936cb7000000000000000000000000000000000000000000000000000000008152fd5b60405190612d9082610260565b600c82527f636f64654c6f636174696f6e00000000000000000000000000000000000000006020830152565b60405190612dc982610260565b600882527f6c616e67756167650000000000000000000000000000000000000000000000006020830152565b6001111561111f57565b60405190612e0c82610260565b600682527f736f7572636500000000000000000000000000000000000000000000000000006020830152565b60405190612e4582610260565b600482527f61726773000000000000000000000000000000000000000000000000000000006020830152565b60405190612e7e82610260565b600f82527f736563726574734c6f636174696f6e00000000000000000000000000000000006020830152565b60405190612eb782610260565b600782527f73656372657473000000000000000000000000000000000000000000000000006020830152565b60405190612ef082610260565b600982527f62797465734172677300000000000000000000000000000000000000000000006020830152565b612f24613268565b90612f36612f30612d83565b836132b8565b612f538151612f4481611115565b612f4d81611115565b8361337b565b612f5e612f30612dbc565b612f786040820151612f6f81612df5565b612f4d81612df5565b612f83612f30612dff565b612f916060820151836132b8565b60a081018051516130a9575b506080810190815151613011575b60c0915001805151612fbe575b50515190565b91612fca612f30612ee3565b612fd38261341c565b60005b83518051821015612ffe5790612ff8612ff182600194612971565b5185613544565b01612fd6565b5050915061300b816134b7565b38612fb8565b60208101805161302081611115565b61302981611115565b1561307f5760c09261306261307a92613049613043612e71565b886132b8565b5161305381611115565b61305c81611115565b8661337b565b61307361306d612eaa565b866132b8565b5184613544565b612fab565b60046040517fa80d31f7000000000000000000000000000000000000000000000000000000008152fd5b926130bb6130b5612e38565b846132b8565b6130c48361341c565b60005b845180518210156130ef57906130e96130e282600194612971565b51866132b8565b016130c7565b505092506130fc826134b7565b38612f9d565b90816020910312610313575190565b6131629060209263ffffffff9460405195869485947f461d2762000000000000000000000000000000000000000000000000000000008652610c91600487015260a0602487015260a48601906109bb565b92600160448601521660648401526084830152038160006001600160a01b037f0000000000000000000000000000000000000000000000000000000000000000165af1908115611685576000916131de575b50807f1131472297a800fee664d1d89cfa8f7676ff07189ecc53f80bbb5f4969099db8600080a290565b613200915060203d602011613206575b6131f8818361027c565b810190613102565b386131b4565b503d6131ee565b815115613224576000808252604082015260600152565b60046040517f22ce3edd000000000000000000000000000000000000000000000000000000008152fd5b6040519061325b82610260565b6000602083606081520152565b60405161327481610260565b61327c61324e565b808252602082016000815261328f61324e565b506101006020830152604051809252600082526101208201918210610313576000916040525290565b81516132fd92919067ffffffffffffffff81169060178211613300576132e89150606060ff845192161790613a13565b505b51906132f461324e565b50805191613c93565b50565b5060ff81116133255761331f90613317835161381a565b508251613c1f565b506132ea565b61ffff81116133445761331f9061333c83516137b5565b508251613b94565b63ffffffff81116133655761331f9061335d8351613750565b508251613b09565b61331f9061337383516136e0565b508251613a7e565b9081519161338761324e565b5082515160018101908181116124385760208501518110156133e0575b60c26020610c4f96519283010153805182116133d8575b5050604051916020830152602082526133d382610260565b613544565b5238806133bb565b8160011b948286046002148315171561243857602081613412610c4f9861340b60c2955191846135c9565b508261361b565b50965050506133a4565b80519061342761324e565b508151516001810190818111612438576020840151811015613475575b609f602080955192830101538051821161346d575b505001805190600182018092116124385752565b523880613459565b8160011b93828504600214831517156124385760208161349e829761340b609f955191846135c9565b5095505050613444565b90601f19820191821161243857565b8051906134c261324e565b508151516001810190818111612438576020840151811015613511575b60ff6020809551928301015380518211613509575b50500180519060001982019182116124385752565b5238806134f4565b8160011b93828504600214831517156124385760208161353a829761340b60ff955191846135c9565b50955050506134df565b81516132fd92919067ffffffffffffffff81169060178211613574576132e89150604060ff845192161790613a13565b5060ff811161358b5761331f9061331783516139ae565b61ffff81116135a25761331f9061333c8351613949565b63ffffffff81116135bb5761331f9061335d83516138e4565b61331f90613373835161387f565b906135d261324e565b50601f811680613601575b50806020830152604051908183526000825281016020019081106103135760405290565b6020036020811161243857810180911161243857386135dd565b9061362461324e565b5080519061363061324e565b5061363e8151831115613c8c565b8251519161364c81846125b5565b602092602086015182116136c9575b6020918651838151978201019682116136c1575b505001915b808210156136995750600019906020036101000a019081199051169082511617905290565b9091926136b56136af6136bb92865181526125a7565b946125a7565b926134a8565b90613674565b52388061366f565b6136db6136d5836126dd565b87613d3f565b61365b565b6136e861324e565b508051516001810190818111612438576020830151811015613721575b607b6020845192830101538051821161371d57505090565b5290565b8160011b828104600214831517156124385761374a90613743855191866135c9565b508461361b565b50613705565b61375861324e565b50805151600181019081811161243857602083015181101561378d575b607a6020845192830101538051821161371d57505090565b8160011b82810460021483151715612438576137af90613743855191866135c9565b50613775565b6137bd61324e565b5080515160018101908181116124385760208301518110156137f2575b60796020845192830101538051821161371d57505090565b8160011b828104600214831517156124385761381490613743855191866135c9565b506137da565b61382261324e565b508051516001810190818111612438576020830151811015613857575b60786020845192830101538051821161371d57505090565b8160011b828104600214831517156124385761387990613743855191866135c9565b5061383f565b61388761324e565b5080515160018101908181116124385760208301518110156138bc575b605b6020845192830101538051821161371d57505090565b8160011b82810460021483151715612438576138de90613743855191866135c9565b506138a4565b6138ec61324e565b508051516001810190818111612438576020830151811015613921575b605a6020845192830101538051821161371d57505090565b8160011b828104600214831517156124385761394390613743855191866135c9565b50613909565b61395161324e565b508051516001810190818111612438576020830151811015613986575b60596020845192830101538051821161371d57505090565b8160011b82810460021483151715612438576139a890613743855191866135c9565b5061396e565b6139b661324e565b5080515160018101908181116124385760208301518110156139eb575b60586020845192830101538051821161371d57505090565b8160011b8281046002148315171561243857613a0d90613743855191866135c9565b506139d3565b90613a1c61324e565b508151516001810191828211612438576020840151821015613a4f575b6020845192830101538051821161371d57505090565b8260011b8381046002148415171561243857613a7890613a71865191876135c9565b508561361b565b50613a39565b90613a8761324e565b508151518060080191826008116124385760208401518311613ae1575b6008845192830101907fffffffffffffffffffffffffffffffffffffffffffffffff00000000000000008251161790528051821161371d57505090565b8260011b8381046002148415171561243857613b0390613a71865191876135c9565b50613aa4565b90613b1261324e565b508151518060040191826004116124385760208401518311613b6c575b6004845192830101907fffffffffffffffffffffffffffffffffffffffffffffffffffffffff000000008251161790528051821161371d57505090565b8260011b8381046002148415171561243857613b8e90613a71865191876135c9565b50613b2f565b90613b9d61324e565b508151518060020191826002116124385760208401518311613bf7575b6002845192830101907fffffffffffffffffffffffffffffffffffffffffffffffffffffffffffff00008251161790528051821161371d57505090565b8260011b8381046002148415171561243857613c1990613a71865191876135c9565b50613bba565b90613c2861324e565b508151518060010191826001116124385760208401518311613c64575b60018451928301019060ff198251161790528051821161371d57505090565b8260011b8381046002148415171561243857613c8690613a71865191876135c9565b50613c45565b1561031357565b9190613c9d61324e565b50613cab8151831115613c8c565b825151916020613cbb82856125b5565b928193828701518111613d28575b865183815197820101968211613d20575b505001915b80821015613d045750600019906020036101000a019081199051169082511617905290565b9091926136b56136af613d1a92865181526125a7565b90613cdf565b523880613cda565b613d3a613d34826126dd565b88613d3f565b613cc9565b906132fd91613d50815192826135c9565b5061361b56fea264697066735822122093b62b8487929c8ebcf7a101a0cb74de2be1b0f02689cd870247eff76ff211cc64736f6c63430008180033",
  "devdoc": {
    "kind": "dev",
    "methods": {
      "buy(uint256,uint256,uint256,uint256[8])": {
        "details": "Buy weather insurance."
      },
      "claimInsurancePayout(uint256)": {
        "details": "Claim insurance"
      },
      "constructor": {
        "details": "Constructor      initialize global variable for insurance ids"
      },
      "fundInsurance(uint256)": {
        "details": "liquidity providers can deposit funds in any amount to support any insurance"
      },
      "getInsuranceFunds(uint256)": {
        "details": "to see how much fund an insurance is supported with"
      },
      "handleOracleFulfillment(bytes32,bytes,bytes)": {
        "details": "Either response or error parameter will be set, but never both.",
        "params": {
          "err": "Aggregated error either from the request's source code or from the execution pipeline.",
          "requestId": "The requestId returned by FunctionsClient.sendRequest().",
          "response": "Aggregated response from the request's source code."
        }
      },
      "payout(uint256,address)": {
        "details": "Transfers eligible payout funds to insuree"
      },
      "registerInsurance(string,uint256,uint256,uint8,string,string,string,uint256,uint256)": {
        "details": "Register insurance by provising all required fields. The caller should be an insurance provider"
      },
      "registerInsuranceProvider(address)": {
        "details": "Add an insurance to the registration queue      Can only be called from InsuranceApp contract"
      },
      "registerValidator()": {
        "details": "to register a validator."
      }
    },
    "stateVariables": {
      "externalNullifierHash": {
        "details": "The keccak256 hash of the externalNullifier (unique identifier of the action performed), combination of appId and action"
      },
      "groupId": {
        "details": "The World ID group ID (1 for Orb-verified)"
      },
      "nullifierHashes": {
        "details": "Whether a nullifier hash has been used already. Used to guarantee an action is only performed once by a single person"
      },
      "worldId": {
        "details": "The address of the World ID Router contract that will be used for verifying proofs"
      }
    },
    "version": 1
  },
  "userdoc": {
    "errors": {
      "InvalidNullifier()": [
        {
          "notice": "Thrown when attempting to reuse a nullifier"
        }
      ]
    },
    "kind": "user",
    "methods": {
      "acceptOwnership()": {
        "notice": "Allows an ownership transfer to be completed by the recipient."
      },
      "handleOracleFulfillment(bytes32,bytes,bytes)": {
        "notice": "Chainlink Functions response handler called by the Functions Router during fullilment from the designated transmitter node in an OCR round."
      },
      "owner()": {
        "notice": "Get the current owner"
      },
      "transferOwnership(address)": {
        "notice": "Allows an owner to begin transferring ownership to a new address."
      }
    },
    "version": 1
  },
  "storageLayout": {
    "storage": [
      {
        "astId": 816,
        "contract": "contracts/InsuranceData.sol:InsuranceData",
        "label": "s_owner",
        "offset": 0,
        "slot": "0",
        "type": "t_address"
      },
      {
        "astId": 818,
        "contract": "contracts/InsuranceData.sol:InsuranceData",
        "label": "s_pendingOwner",
        "offset": 0,
        "slot": "1",
        "type": "t_address"
      },
      {
        "astId": 3705,
        "contract": "contracts/InsuranceData.sol:InsuranceData",
        "label": "s_lastRequestId",
        "offset": 0,
        "slot": "2",
        "type": "t_bytes32"
      },
      {
        "astId": 3707,
        "contract": "contracts/InsuranceData.sol:InsuranceData",
        "label": "s_lastResponse",
        "offset": 0,
        "slot": "3",
        "type": "t_bytes_storage"
      },
      {
        "astId": 3709,
        "contract": "contracts/InsuranceData.sol:InsuranceData",
        "label": "s_lastError",
        "offset": 0,
        "slot": "4",
        "type": "t_bytes_storage"
      },
      {
        "astId": 3711,
        "contract": "contracts/InsuranceData.sol:InsuranceData",
        "label": "contractOwner",
        "offset": 0,
        "slot": "5",
        "type": "t_address"
      },
      {
        "astId": 3715,
        "contract": "contracts/InsuranceData.sol:InsuranceData",
        "label": "registeredInsuranceProvider",
        "offset": 0,
        "slot": "6",
        "type": "t_mapping(t_address,t_bool)"
      },
      {
        "astId": 3718,
        "contract": "contracts/InsuranceData.sol:InsuranceData",
        "label": "providers",
        "offset": 0,
        "slot": "7",
        "type": "t_array(t_address)dyn_storage"
      },
      {
        "astId": 3721,
        "contract": "contracts/InsuranceData.sol:InsuranceData",
        "label": "alreadyFundedInsuranceProviders",
        "offset": 0,
        "slot": "8",
        "type": "t_array(t_address)dyn_storage"
      },
      {
        "astId": 3725,
        "contract": "contracts/InsuranceData.sol:InsuranceData",
        "label": "numliquidityproviders",
        "offset": 0,
        "slot": "9",
        "type": "t_mapping(t_uint256,t_uint256)"
      },
      {
        "astId": 3730,
        "contract": "contracts/InsuranceData.sol:InsuranceData",
        "label": "insurancelps",
        "offset": 0,
        "slot": "10",
        "type": "t_mapping(t_uint256,t_array(t_address)dyn_storage)"
      },
      {
        "astId": 3734,
        "contract": "contracts/InsuranceData.sol:InsuranceData",
        "label": "insuranceliquidity",
        "offset": 0,
        "slot": "11",
        "type": "t_mapping(t_uint256,t_uint256)"
      },
      {
        "astId": 3740,
        "contract": "contracts/InsuranceData.sol:InsuranceData",
        "label": "hasProvidedLiquidity",
        "offset": 0,
        "slot": "12",
        "type": "t_mapping(t_uint256,t_mapping(t_address,t_bool))"
      },
      {
        "astId": 3746,
        "contract": "contracts/InsuranceData.sol:InsuranceData",
        "label": "claimablePayout",
        "offset": 0,
        "slot": "13",
        "type": "t_mapping(t_address,t_mapping(t_uint256,t_uint256))"
      },
      {
        "astId": 3779,
        "contract": "contracts/InsuranceData.sol:InsuranceData",
        "label": "insurances",
        "offset": 0,
        "slot": "14",
        "type": "t_mapping(t_uint256,t_struct(Insurance)3774_storage)"
      },
      {
        "astId": 3785,
        "contract": "contracts/InsuranceData.sol:InsuranceData",
        "label": "liquidityperlp",
        "offset": 0,
        "slot": "15",
        "type": "t_mapping(t_uint256,t_mapping(t_address,t_uint256))"
      },
      {
        "astId": 3791,
        "contract": "contracts/InsuranceData.sol:InsuranceData",
        "label": "clientinsured",
        "offset": 0,
        "slot": "16",
        "type": "t_mapping(t_address,t_mapping(t_uint256,t_bool))"
      },
      {
        "astId": 3796,
        "contract": "contracts/InsuranceData.sol:InsuranceData",
        "label": "insuranceProviderInsurees",
        "offset": 0,
        "slot": "17",
        "type": "t_mapping(t_uint256,t_array(t_address)dyn_storage)"
      },
      {
        "astId": 3802,
        "contract": "contracts/InsuranceData.sol:InsuranceData",
        "label": "insuredamount",
        "offset": 0,
        "slot": "18",
        "type": "t_mapping(t_address,t_mapping(t_uint256,t_uint256))"
      },
      {
        "astId": 3808,
        "contract": "contracts/InsuranceData.sol:InsuranceData",
        "label": "insuredpayout",
        "offset": 0,
        "slot": "19",
        "type": "t_mapping(t_uint256,t_mapping(t_address,t_uint256))"
      },
      {
        "astId": 3810,
        "contract": "contracts/InsuranceData.sol:InsuranceData",
        "label": "insuranceId",
        "offset": 0,
        "slot": "20",
        "type": "t_uint256"
      },
      {
        "astId": 3813,
        "contract": "contracts/InsuranceData.sol:InsuranceData",
        "label": "validators",
        "offset": 0,
        "slot": "21",
        "type": "t_array(t_address)dyn_storage"
      },
      {
        "astId": 3816,
        "contract": "contracts/InsuranceData.sol:InsuranceData",
        "label": "insuranceIds",
        "offset": 0,
        "slot": "22",
        "type": "t_array(t_uint256)dyn_storage"
      },
      {
        "astId": 3820,
        "contract": "contracts/InsuranceData.sol:InsuranceData",
        "label": "validatorAlreadyExists",
        "offset": 0,
        "slot": "23",
        "type": "t_mapping(t_address,t_bool)"
      },
      {
        "astId": 3865,
        "contract": "contracts/InsuranceData.sol:InsuranceData",
        "label": "router",
        "offset": 0,
        "slot": "24",
        "type": "t_address"
      },
      {
        "astId": 3868,
        "contract": "contracts/InsuranceData.sol:InsuranceData",
        "label": "source",
        "offset": 0,
        "slot": "25",
        "type": "t_string_storage"
      },
      {
        "astId": 3871,
        "contract": "contracts/InsuranceData.sol:InsuranceData",
        "label": "gasLimit",
        "offset": 0,
        "slot": "26",
        "type": "t_uint32"
      },
      {
        "astId": 3874,
        "contract": "contracts/InsuranceData.sol:InsuranceData",
        "label": "donID",
        "offset": 0,
        "slot": "27",
        "type": "t_bytes32"
      },
      {
        "astId": 3876,
        "contract": "contracts/InsuranceData.sol:InsuranceData",
        "label": "character",
        "offset": 0,
        "slot": "28",
        "type": "t_string_storage"
      },
      {
        "astId": 3897,
        "contract": "contracts/InsuranceData.sol:InsuranceData",
        "label": "nullifierHashes",
        "offset": 0,
        "slot": "29",
        "type": "t_mapping(t_uint256,t_bool)"
      }
    ],
    "types": {
      "t_address": {
        "encoding": "inplace",
        "label": "address",
        "numberOfBytes": "20"
      },
      "t_array(t_address)dyn_storage": {
        "base": "t_address",
        "encoding": "dynamic_array",
        "label": "address[]",
        "numberOfBytes": "32"
      },
      "t_array(t_uint256)dyn_storage": {
        "base": "t_uint256",
        "encoding": "dynamic_array",
        "label": "uint256[]",
        "numberOfBytes": "32"
      },
      "t_bool": {
        "encoding": "inplace",
        "label": "bool",
        "numberOfBytes": "1"
      },
      "t_bytes32": {
        "encoding": "inplace",
        "label": "bytes32",
        "numberOfBytes": "32"
      },
      "t_bytes_storage": {
        "encoding": "bytes",
        "label": "bytes",
        "numberOfBytes": "32"
      },
      "t_enum(TypeOfInsurance)3750": {
        "encoding": "inplace",
        "label": "enum InsuranceData.TypeOfInsurance",
        "numberOfBytes": "1"
      },
      "t_mapping(t_address,t_bool)": {
        "encoding": "mapping",
        "key": "t_address",
        "label": "mapping(address => bool)",
        "numberOfBytes": "32",
        "value": "t_bool"
      },
      "t_mapping(t_address,t_mapping(t_uint256,t_bool))": {
        "encoding": "mapping",
        "key": "t_address",
        "label": "mapping(address => mapping(uint256 => bool))",
        "numberOfBytes": "32",
        "value": "t_mapping(t_uint256,t_bool)"
      },
      "t_mapping(t_address,t_mapping(t_uint256,t_uint256))": {
        "encoding": "mapping",
        "key": "t_address",
        "label": "mapping(address => mapping(uint256 => uint256))",
        "numberOfBytes": "32",
        "value": "t_mapping(t_uint256,t_uint256)"
      },
      "t_mapping(t_address,t_uint256)": {
        "encoding": "mapping",
        "key": "t_address",
        "label": "mapping(address => uint256)",
        "numberOfBytes": "32",
        "value": "t_uint256"
      },
      "t_mapping(t_uint256,t_array(t_address)dyn_storage)": {
        "encoding": "mapping",
        "key": "t_uint256",
        "label": "mapping(uint256 => address[])",
        "numberOfBytes": "32",
        "value": "t_array(t_address)dyn_storage"
      },
      "t_mapping(t_uint256,t_bool)": {
        "encoding": "mapping",
        "key": "t_uint256",
        "label": "mapping(uint256 => bool)",
        "numberOfBytes": "32",
        "value": "t_bool"
      },
      "t_mapping(t_uint256,t_mapping(t_address,t_bool))": {
        "encoding": "mapping",
        "key": "t_uint256",
        "label": "mapping(uint256 => mapping(address => bool))",
        "numberOfBytes": "32",
        "value": "t_mapping(t_address,t_bool)"
      },
      "t_mapping(t_uint256,t_mapping(t_address,t_uint256))": {
        "encoding": "mapping",
        "key": "t_uint256",
        "label": "mapping(uint256 => mapping(address => uint256))",
        "numberOfBytes": "32",
        "value": "t_mapping(t_address,t_uint256)"
      },
      "t_mapping(t_uint256,t_struct(Insurance)3774_storage)": {
        "encoding": "mapping",
        "key": "t_uint256",
        "label": "mapping(uint256 => struct InsuranceData.Insurance)",
        "numberOfBytes": "32",
        "value": "t_struct(Insurance)3774_storage"
      },
      "t_mapping(t_uint256,t_uint256)": {
        "encoding": "mapping",
        "key": "t_uint256",
        "label": "mapping(uint256 => uint256)",
        "numberOfBytes": "32",
        "value": "t_uint256"
      },
      "t_string_storage": {
        "encoding": "bytes",
        "label": "string",
        "numberOfBytes": "32"
      },
      "t_struct(Insurance)3774_storage": {
        "encoding": "inplace",
        "label": "struct InsuranceData.Insurance",
        "members": [
          {
            "astId": 3752,
            "contract": "contracts/InsuranceData.sol:InsuranceData",
            "label": "isRegistered",
            "offset": 0,
            "slot": "0",
            "type": "t_bool"
          },
          {
            "astId": 3754,
            "contract": "contracts/InsuranceData.sol:InsuranceData",
            "label": "start",
            "offset": 0,
            "slot": "1",
            "type": "t_uint256"
          },
          {
            "astId": 3756,
            "contract": "contracts/InsuranceData.sol:InsuranceData",
            "label": "end",
            "offset": 0,
            "slot": "2",
            "type": "t_uint256"
          },
          {
            "astId": 3759,
            "contract": "contracts/InsuranceData.sol:InsuranceData",
            "label": "typeOfIns",
            "offset": 0,
            "slot": "3",
            "type": "t_enum(TypeOfInsurance)3750"
          },
          {
            "astId": 3761,
            "contract": "contracts/InsuranceData.sol:InsuranceData",
            "label": "provider",
            "offset": 1,
            "slot": "3",
            "type": "t_address"
          },
          {
            "astId": 3763,
            "contract": "contracts/InsuranceData.sol:InsuranceData",
            "label": "lat",
            "offset": 0,
            "slot": "4",
            "type": "t_string_storage"
          },
          {
            "astId": 3765,
            "contract": "contracts/InsuranceData.sol:InsuranceData",
            "label": "lon",
            "offset": 0,
            "slot": "5",
            "type": "t_string_storage"
          },
          {
            "astId": 3767,
            "contract": "contracts/InsuranceData.sol:InsuranceData",
            "label": "name",
            "offset": 0,
            "slot": "6",
            "type": "t_string_storage"
          },
          {
            "astId": 3769,
            "contract": "contracts/InsuranceData.sol:InsuranceData",
            "label": "description",
            "offset": 0,
            "slot": "7",
            "type": "t_string_storage"
          },
          {
            "astId": 3771,
            "contract": "contracts/InsuranceData.sol:InsuranceData",
            "label": "riskNumerator",
            "offset": 0,
            "slot": "8",
            "type": "t_uint256"
          },
          {
            "astId": 3773,
            "contract": "contracts/InsuranceData.sol:InsuranceData",
            "label": "riskDenominator",
            "offset": 0,
            "slot": "9",
            "type": "t_uint256"
          }
        ],
        "numberOfBytes": "320"
      },
      "t_uint256": {
        "encoding": "inplace",
        "label": "uint256",
        "numberOfBytes": "32"
      },
      "t_uint32": {
        "encoding": "inplace",
        "label": "uint32",
        "numberOfBytes": "4"
      }
    }
  }
}