{
  "address": "0x3d05794AD4c03d5F91b80141E297d9A31a93e3a9",
  "abi": [
    {
      "inputs": [
        {
          "internalType": "contract IWorldID",
          "name": "_worldId",
          "type": "address"
        },
        {
          "internalType": "string",
          "name": "_appId",
          "type": "string"
        },
        {
          "internalType": "string",
          "name": "_action",
          "type": "string"
        }
      ],
      "stateMutability": "nonpayable",
      "type": "constructor"
    },
    {
      "inputs": [],
      "name": "EmptyArgs",
      "type": "error"
    },
    {
      "inputs": [],
      "name": "EmptySource",
      "type": "error"
    },
    {
      "inputs": [],
      "name": "InvalidNullifier",
      "type": "error"
    },
    {
      "inputs": [],
      "name": "NoInlineSecrets",
      "type": "error"
    },
    {
      "inputs": [],
      "name": "OnlyRouterCanFulfill",
      "type": "error"
    },
    {
      "inputs": [
        {
          "internalType": "bytes32",
          "name": "requestId",
          "type": "bytes32"
        }
      ],
      "name": "UnexpectedRequestID",
      "type": "error"
    },
    {
      "anonymous": false,
      "inputs": [
        {
          "indexed": false,
          "internalType": "address",
          "name": "contractAddress",
          "type": "address"
        }
      ],
      "name": "ContractAuthorized",
      "type": "event"
    },
    {
      "anonymous": false,
      "inputs": [
        {
          "indexed": false,
          "internalType": "address",
          "name": "contractAddress",
          "type": "address"
        }
      ],
      "name": "ContractDeauthorized",
      "type": "event"
    },
    {
      "anonymous": false,
      "inputs": [
        {
          "indexed": false,
          "internalType": "uint256",
          "name": "insuranceid",
          "type": "uint256"
        }
      ],
      "name": "InsuranceAdded",
      "type": "event"
    },
    {
      "anonymous": false,
      "inputs": [
        {
          "indexed": false,
          "internalType": "address",
          "name": "insuree",
          "type": "address"
        },
        {
          "indexed": false,
          "internalType": "uint256",
          "name": "insuranceid",
          "type": "uint256"
        }
      ],
      "name": "InsuranceBought",
      "type": "event"
    },
    {
      "anonymous": false,
      "inputs": [
        {
          "indexed": false,
          "internalType": "address",
          "name": "insuree",
          "type": "address"
        },
        {
          "indexed": false,
          "internalType": "uint256",
          "name": "payout",
          "type": "uint256"
        }
      ],
      "name": "InsuranceClaimed",
      "type": "event"
    },
    {
      "anonymous": false,
      "inputs": [
        {
          "indexed": true,
          "internalType": "address",
          "name": "from",
          "type": "address"
        },
        {
          "indexed": true,
          "internalType": "address",
          "name": "to",
          "type": "address"
        }
      ],
      "name": "OwnershipTransferRequested",
      "type": "event"
    },
    {
      "anonymous": false,
      "inputs": [
        {
          "indexed": true,
          "internalType": "address",
          "name": "from",
          "type": "address"
        },
        {
          "indexed": true,
          "internalType": "address",
          "name": "to",
          "type": "address"
        }
      ],
      "name": "OwnershipTransferred",
      "type": "event"
    },
    {
      "anonymous": false,
      "inputs": [
        {
          "indexed": true,
          "internalType": "bytes32",
          "name": "id",
          "type": "bytes32"
        }
      ],
      "name": "RequestFulfilled",
      "type": "event"
    },
    {
      "anonymous": false,
      "inputs": [
        {
          "indexed": true,
          "internalType": "bytes32",
          "name": "id",
          "type": "bytes32"
        }
      ],
      "name": "RequestSent",
      "type": "event"
    },
    {
      "anonymous": false,
      "inputs": [
        {
          "indexed": true,
          "internalType": "bytes32",
          "name": "requestId",
          "type": "bytes32"
        },
        {
          "indexed": false,
          "internalType": "string",
          "name": "character",
          "type": "string"
        },
        {
          "indexed": false,
          "internalType": "bytes",
          "name": "response",
          "type": "bytes"
        },
        {
          "indexed": false,
          "internalType": "bytes",
          "name": "err",
          "type": "bytes"
        }
      ],
      "name": "Response",
      "type": "event"
    },
    {
      "anonymous": false,
      "inputs": [
        {
          "indexed": false,
          "internalType": "address",
          "name": "validator",
          "type": "address"
        }
      ],
      "name": "ValidatorAdded",
      "type": "event"
    },
    {
      "stateMutability": "payable",
      "type": "fallback"
    },
    {
      "inputs": [],
      "name": "acceptOwnership",
      "outputs": [],
      "stateMutability": "nonpayable",
      "type": "function"
    },
    {
      "inputs": [
        {
          "internalType": "uint256",
          "name": "",
          "type": "uint256"
        }
      ],
      "name": "alreadyFundedInsuranceProviders",
      "outputs": [
        {
          "internalType": "address",
          "name": "",
          "type": "address"
        }
      ],
      "stateMutability": "view",
      "type": "function"
    },
    {
      "inputs": [
        {
          "internalType": "uint256",
          "name": "insuranceid",
          "type": "uint256"
        },
        {
          "internalType": "uint256",
          "name": "root",
          "type": "uint256"
        },
        {
          "internalType": "uint256",
          "name": "nullifierHash",
          "type": "uint256"
        },
        {
          "internalType": "uint256[8]",
          "name": "proof",
          "type": "uint256[8]"
        }
      ],
      "name": "buy",
      "outputs": [],
      "stateMutability": "payable",
      "type": "function"
    },
    {
      "inputs": [],
      "name": "character",
      "outputs": [
        {
          "internalType": "string",
          "name": "",
          "type": "string"
        }
      ],
      "stateMutability": "view",
      "type": "function"
    },
    {
      "inputs": [
        {
          "internalType": "uint256",
          "name": "insuranceid",
          "type": "uint256"
        }
      ],
      "name": "claimInsurancePayout",
      "outputs": [
        {
          "internalType": "bytes32",
          "name": "",
          "type": "bytes32"
        }
      ],
      "stateMutability": "nonpayable",
      "type": "function"
    },
    {
      "inputs": [
        {
          "internalType": "address",
          "name": "",
          "type": "address"
        },
        {
          "internalType": "uint256",
          "name": "",
          "type": "uint256"
        }
      ],
      "name": "claimablePayout",
      "outputs": [
        {
          "internalType": "uint256",
          "name": "",
          "type": "uint256"
        }
      ],
      "stateMutability": "view",
      "type": "function"
    },
    {
      "inputs": [
        {
          "internalType": "uint256",
          "name": "insuranceid",
          "type": "uint256"
        }
      ],
      "name": "fundInsurance",
      "outputs": [
        {
          "internalType": "uint256",
          "name": "",
          "type": "uint256"
        }
      ],
      "stateMutability": "payable",
      "type": "function"
    },
    {
      "inputs": [],
      "name": "getFundedInsuranceProviders",
      "outputs": [
        {
          "internalType": "address[]",
          "name": "",
          "type": "address[]"
        }
      ],
      "stateMutability": "view",
      "type": "function"
    },
    {
      "inputs": [
        {
          "internalType": "uint256",
          "name": "insuranceid",
          "type": "uint256"
        }
      ],
      "name": "getInsuranceFunds",
      "outputs": [
        {
          "internalType": "uint256",
          "name": "",
          "type": "uint256"
        }
      ],
      "stateMutability": "view",
      "type": "function"
    },
    {
      "inputs": [],
      "name": "getInsuranceProviders",
      "outputs": [
        {
          "internalType": "address[]",
          "name": "",
          "type": "address[]"
        }
      ],
      "stateMutability": "view",
      "type": "function"
    },
    {
      "inputs": [
        {
          "internalType": "bytes32",
          "name": "requestId",
          "type": "bytes32"
        },
        {
          "internalType": "bytes",
          "name": "response",
          "type": "bytes"
        },
        {
          "internalType": "bytes",
          "name": "err",
          "type": "bytes"
        }
      ],
      "name": "handleOracleFulfillment",
      "outputs": [],
      "stateMutability": "nonpayable",
      "type": "function"
    },
    {
      "inputs": [
        {
          "internalType": "uint256",
          "name": "",
          "type": "uint256"
        },
        {
          "internalType": "address",
          "name": "",
          "type": "address"
        }
      ],
      "name": "hasProvidedLiquidity",
      "outputs": [
        {
          "internalType": "bool",
          "name": "",
          "type": "bool"
        }
      ],
      "stateMutability": "view",
      "type": "function"
    },
    {
      "inputs": [],
      "name": "insuranceId",
      "outputs": [
        {
          "internalType": "uint256",
          "name": "",
          "type": "uint256"
        }
      ],
      "stateMutability": "view",
      "type": "function"
    },
    {
      "inputs": [
        {
          "internalType": "uint256",
          "name": "",
          "type": "uint256"
        }
      ],
      "name": "insuranceIds",
      "outputs": [
        {
          "internalType": "uint256",
          "name": "",
          "type": "uint256"
        }
      ],
      "stateMutability": "view",
      "type": "function"
    },
    {
      "inputs": [
        {
          "internalType": "uint256",
          "name": "",
          "type": "uint256"
        }
      ],
      "name": "insuranceliquidity",
      "outputs": [
        {
          "internalType": "uint256",
          "name": "",
          "type": "uint256"
        }
      ],
      "stateMutability": "view",
      "type": "function"
    },
    {
      "inputs": [
        {
          "internalType": "uint256",
          "name": "",
          "type": "uint256"
        },
        {
          "internalType": "uint256",
          "name": "",
          "type": "uint256"
        }
      ],
      "name": "insurancelps",
      "outputs": [
        {
          "internalType": "address",
          "name": "",
          "type": "address"
        }
      ],
      "stateMutability": "view",
      "type": "function"
    },
    {
      "inputs": [
        {
          "internalType": "uint256",
          "name": "",
          "type": "uint256"
        }
      ],
      "name": "insurances",
      "outputs": [
        {
          "internalType": "bool",
          "name": "isRegistered",
          "type": "bool"
        },
        {
          "internalType": "uint256",
          "name": "start",
          "type": "uint256"
        },
        {
          "internalType": "uint256",
          "name": "end",
          "type": "uint256"
        },
        {
          "internalType": "enum InsuranceData.TypeOfInsurance",
          "name": "typeOfIns",
          "type": "uint8"
        },
        {
          "internalType": "address",
          "name": "provider",
          "type": "address"
        },
        {
          "internalType": "string",
          "name": "lat",
          "type": "string"
        },
        {
          "internalType": "string",
          "name": "lon",
          "type": "string"
        },
        {
          "internalType": "string",
          "name": "name",
          "type": "string"
        },
        {
          "internalType": "string",
          "name": "description",
          "type": "string"
        },
        {
          "internalType": "uint256",
          "name": "riskNumerator",
          "type": "uint256"
        },
        {
          "internalType": "uint256",
          "name": "riskDenominator",
          "type": "uint256"
        }
      ],
      "stateMutability": "view",
      "type": "function"
    },
    {
      "inputs": [
        {
          "internalType": "address",
          "name": "registeredInsuranceProviderAddress",
          "type": "address"
        }
      ],
      "name": "isInsuranceProviderRegistered",
      "outputs": [
        {
          "internalType": "bool",
          "name": "",
          "type": "bool"
        }
      ],
      "stateMutability": "view",
      "type": "function"
    },
    {
      "inputs": [
        {
          "internalType": "uint256",
          "name": "insuranceid",
          "type": "uint256"
        }
      ],
      "name": "isNotInsured",
      "outputs": [
        {
          "internalType": "bool",
          "name": "",
          "type": "bool"
        }
      ],
      "stateMutability": "view",
      "type": "function"
    },
    {
      "inputs": [
        {
          "internalType": "uint256",
          "name": "",
          "type": "uint256"
        },
        {
          "internalType": "address",
          "name": "",
          "type": "address"
        }
      ],
      "name": "liquidityperlp",
      "outputs": [
        {
          "internalType": "uint256",
          "name": "",
          "type": "uint256"
        }
      ],
      "stateMutability": "view",
      "type": "function"
    },
    {
      "inputs": [],
      "name": "numOfInsuranceProviders",
      "outputs": [
        {
          "internalType": "uint256",
          "name": "count",
          "type": "uint256"
        }
      ],
      "stateMutability": "view",
      "type": "function"
    },
    {
      "inputs": [
        {
          "internalType": "uint256",
          "name": "",
          "type": "uint256"
        }
      ],
      "name": "numliquidityproviders",
      "outputs": [
        {
          "internalType": "uint256",
          "name": "",
          "type": "uint256"
        }
      ],
      "stateMutability": "view",
      "type": "function"
    },
    {
      "inputs": [],
      "name": "owner",
      "outputs": [
        {
          "internalType": "address",
          "name": "",
          "type": "address"
        }
      ],
      "stateMutability": "view",
      "type": "function"
    },
    {
      "inputs": [
        {
          "internalType": "uint256",
          "name": "insuranceid",
          "type": "uint256"
        },
        {
          "internalType": "address",
          "name": "insuree",
          "type": "address"
        }
      ],
      "name": "payout",
      "outputs": [
        {
          "internalType": "uint256",
          "name": "",
          "type": "uint256"
        }
      ],
      "stateMutability": "nonpayable",
      "type": "function"
    },
    {
      "inputs": [
        {
          "internalType": "uint256",
          "name": "",
          "type": "uint256"
        }
      ],
      "name": "providers",
      "outputs": [
        {
          "internalType": "address",
          "name": "",
          "type": "address"
        }
      ],
      "stateMutability": "view",
      "type": "function"
    },
    {
      "inputs": [
        {
          "internalType": "string",
          "name": "_insuranceName",
          "type": "string"
        },
        {
          "internalType": "uint256",
          "name": "_start",
          "type": "uint256"
        },
        {
          "internalType": "uint256",
          "name": "_end",
          "type": "uint256"
        },
        {
          "internalType": "enum InsuranceData.TypeOfInsurance",
          "name": "_typeOfIns",
          "type": "uint8"
        },
        {
          "internalType": "string",
          "name": "_lat",
          "type": "string"
        },
        {
          "internalType": "string",
          "name": "_lon",
          "type": "string"
        },
        {
          "internalType": "string",
          "name": "_description",
          "type": "string"
        },
        {
          "internalType": "uint256",
          "name": "_riskNumerator",
          "type": "uint256"
        },
        {
          "internalType": "uint256",
          "name": "_riskDenominator",
          "type": "uint256"
        }
      ],
      "name": "registerInsurance",
      "outputs": [
        {
          "internalType": "uint256",
          "name": "",
          "type": "uint256"
        }
      ],
      "stateMutability": "payable",
      "type": "function"
    },
    {
      "inputs": [
        {
          "internalType": "address",
          "name": "_provider",
          "type": "address"
        }
      ],
      "name": "registerInsuranceProvider",
      "outputs": [
        {
          "internalType": "bool",
          "name": "successfulRegistration",
          "type": "bool"
        }
      ],
      "stateMutability": "nonpayable",
      "type": "function"
    },
    {
      "inputs": [],
      "name": "registerValidator",
      "outputs": [],
      "stateMutability": "nonpayable",
      "type": "function"
    },
    {
      "inputs": [],
      "name": "s_lastError",
      "outputs": [
        {
          "internalType": "bytes",
          "name": "",
          "type": "bytes"
        }
      ],
      "stateMutability": "view",
      "type": "function"
    },
    {
      "inputs": [],
      "name": "s_lastRequestId",
      "outputs": [
        {
          "internalType": "bytes32",
          "name": "",
          "type": "bytes32"
        }
      ],
      "stateMutability": "view",
      "type": "function"
    },
    {
      "inputs": [],
      "name": "s_lastResponse",
      "outputs": [
        {
          "internalType": "bytes",
          "name": "",
          "type": "bytes"
        }
      ],
      "stateMutability": "view",
      "type": "function"
    },
    {
      "inputs": [
        {
          "internalType": "address",
          "name": "to",
          "type": "address"
        }
      ],
      "name": "transferOwnership",
      "outputs": [],
      "stateMutability": "nonpayable",
      "type": "function"
    },
    {
      "stateMutability": "payable",
      "type": "receive"
    }
  ],
  "transactionHash": "0xf382f36b453eacd2135eca655c27944fe7d7b04c72e81e5b5d0ba80dc462d51a",
  "args": [
    "0x469449f251692E0779667583026b5A1E99512157",
    "app_staging_82d304654019266eb39a83b29a806fe2",
    "inslogin"
  ],
  "numDeployments": 1,
  "solcInputHash": "c8cea3bcacd0a7f877ec26209a187b30",
  "bytecode": "0x610100604081815234620004d357620042b88038038091620000228286620004d8565b8439820191606081840312620004d35780516001600160a01b03939091908483168303620004d35760208281015190926001600160401b03929091838111620004d357816200007391840162000537565b9286830151908111620004d3576200008c920162000537565b9260185495861660805233156200048f57600080546001600160a01b03199081163317825596871673b83e47c2bc239b3bf370bc41e1459a34b41238d017601855601954600181811c98918116801562000484575b868a1014620004705788601f899a999899116200042c575b87620003f98a620003c6838b620003cc8c8c8c8c6103b9601955601982527f6e6728646174612e726573756c742b646174612e6a6f625f6964293b00000000600e8784207f636f6e737420696e737572616e63654964203d20617267735b305d3b636f6e7381557f7420696e737572616e636554797065203d20617267735b315d3b636f6e73742060018201557f6c6174203d20617267735b325d3b636f6e7374206c6f6e203d20617267735b3360028201557f5d3b636f6e73742061667465725473203d20617267735b345d3b636f6e73742060038201557f6265666f72655473203d20617267735b355d3b636f6e7374206170695265737060048201557f6f6e7365203d2061776169742046756e6374696f6e732e6d616b65487474705260058201557f657175657374287b75726c3a206068747470733a2f2f73776170692e696e666f60068201557f2f6170692f696e737572616e63652f247b696e737572616e636549647d3f747960078201557f70653d247b696e737572616e6365547970657d266c61743d247b6c61747d266c60088201557f6f6e3d247b6c6f6e7d2661667465723d247b616674657254737d266265666f7260098201557f653d247b6265666f726554737d607d293b69662028617069526573706f6e7365600a8201557f2e6572726f7229207b7468726f77204572726f72282752657175657374206661600b8201557f696c656427293b7d636f6e7374207b2064617461207d203d2061706952657370600c8201557f6f6e73653b72657475726e2046756e6374696f6e732e656e636f646553747269600d8201550155620493e063ffffffff19601a541617601a557f66756e2d657468657265756d2d7365706f6c69612d3100000000000000000000601b553390600554161760055560145560a052600160e052620003c683855183620003b8829551809285808601910162000512565b8101038084520182620004d8565b62000592565b825194859183830152620003e98151809285878601910162000512565b81010390810184520182620004d8565b60c05251613cfc9081620005bc823960805181818161037a01526130f3015260a05181505060c05181505060e051815050f35b60198452868420600f8101999897969594939291601f0160051c015b808a10620004605750819293949596979850620000f9565b838a55988101988a975062000448565b634e487b7160e01b83526022600452602483fd5b98607f1698620000e1565b845162461bcd60e51b815260048101849052601860248201527f43616e6e6f7420736574206f776e657220746f207a65726f00000000000000006044820152606490fd5b600080fd5b601f909101601f19168101906001600160401b03821190821017620004fc57604052565b634e487b7160e01b600052604160045260246000fd5b60005b838110620005265750506000910152565b818101518382015260200162000515565b81601f82011215620004d35780516001600160401b038111620004fc57604051926200056e601f8301601f191660200185620004d8565b81845260208284010111620004d3576200058f916020808501910162000512565b90565b604051620005b260208281620003b8818301968781519384920162000512565b51902060081c9056fe60806040526004361015610018575b361561001657005b005b60003560e01c80630ca761751461021357806315bef4501461020e5780631ffe7b8a1461020957806321241418146102045780632f8ff3a2146101ff5780633944ea3a146101fa57806343060539146101f557806347709966146101f05780634b0795a8146101eb5780634d2e03a0146101e65780634d7fedfa146101e157806350f3fc81146101dc57806351ca570a146101d757806352ac183b146101d257806359fb49f9146101cd5780635acf77b0146101c857806369e88be7146101825780636de994c5146101c35780637751a3d4146101be57806379ba5097146101b9578063804b071a146101b457806383cb0c81146101af5780638da5cb5b146101aa578063b1e21749146101a5578063b5bc78ed146101a0578063b6b1ccf01461019b578063b8e12d4e14610196578063bcc6587f14610191578063be95e01a1461018c578063cfa29c4414610187578063d0beac3f146101825763f2fde38b0361000e57611cb7565b61123f565b611c8b565b611b1f565b611a7d565b611a2b565b6119d1565b611980565b611962565b61193b565b6118b7565b61172b565b611635565b611323565b61126b565b611221565b61118c565b610f37565b610efe565b610ea4565b610e3a565b610d54565b610b41565b610b02565b610aaf565b6109ca565b61079b565b61070b565b61060e565b610583565b610322565b7f4e487b7100000000000000000000000000000000000000000000000000000000600052604160045260246000fd5b6040810190811067ffffffffffffffff82111761026357604052565b610218565b90601f601f19910116810190811067ffffffffffffffff82111761026357604052565b60405190610160820182811067ffffffffffffffff82111761026357604052565b67ffffffffffffffff811161026357601f01601f191660200190565b9291926102d4826102ac565b916102e26040519384610268565b8294818452818301116102ff578281602093846000960137010152565b600080fd5b9080601f830112156102ff5781602061031f933591016102c8565b90565b346102ff5760606003193601126102ff5760043567ffffffffffffffff6024358181116102ff57610357903690600401610304565b6044358281116102ff5761036f903690600401610304565b916001600160a01b037f000000000000000000000000000000000000000000000000000000000000000016330361052d5783600254036104fc578151908111610263576103c6816103c16003546107e3565b611e74565b602080601f831160011461046f5750916103fe826104069361040b9695600091610464575b506000198260011b9260031b1c19161790565b600355611fbb565b612972565b807f160ed0aaffbef6885155188b91459cb5a97d5daadccf7561d8c46deea6641b506040518061043a81612a56565b0390a27f85e1543bf2f84fe80c6badbce3648c8539ad1df4d2b3d822938ca0538be727e6600080a2005b9050830151386103eb565b600360005290601f1983167fc2575a0e9e593c00f959f8c92f12db2869c3395a3b0502d05e2516446f71f85b926000905b8282106104e45750509261040b9594926001928261040696106104cb575b5050811b01600355611fbb565b84015160001960f88460031b161c1916905538806104be565b80600185968294968a015181550195019301906104a0565b602484604051907fd068bf5b0000000000000000000000000000000000000000000000000000000082526004820152fd5b60046040517fc6829f83000000000000000000000000000000000000000000000000000000008152fd5b602435906001600160a01b03821682036102ff57565b600435906001600160a01b03821682036102ff57565b346102ff5760406003193601126102ff5760206105c86105a1610557565b600435600052600f83526040600020906001600160a01b0316600052602052604060002090565b54604051908152f35b9181601f840112156102ff5782359167ffffffffffffffff83116102ff57602083818601950101116102ff57565b6064359060038210156102ff57565b6101206003193601126102ff5767ffffffffffffffff6004358181116102ff5761063c9036906004016105d1565b6106479291926105ff565b926084358381116102ff576106609036906004016105d1565b9460a4358581116102ff576106799036906004016105d1565b9060c4359687116102ff576106c2976106996106b29836906004016105d1565b959094610104359860e4359860443591602435916123be565b6040519081529081906020820190565b0390f35b602090602060408183019282815285518094520193019160005b8281106106ee575050505090565b83516001600160a01b0316855293810193928101926001016106e0565b346102ff5760006003193601126102ff57604051806008549182815260208091019260086000527ff3f7a9fe364faab93b216da50a3214154f22a0a2b415b23a84c8169e8b636ee3916000905b82821061077b576106c28561076f81890382610268565b604051918291826106c6565b83546001600160a01b031686529485019460019384019390910190610758565b346102ff5760406003193601126102ff576001600160a01b036107bc61056d565b16600052600d60205260406000206024356000526020526020604060002054604051908152f35b90600182811c9216801561082c575b60208310146107fd57565b7f4e487b7100000000000000000000000000000000000000000000000000000000600052602260045260246000fd5b91607f16916107f2565b60035460009291610846826107e3565b808252916020906001908181169081156108c55750600114610869575b50505050565b9293945060036000527fc2575a0e9e593c00f959f8c92f12db2869c3395a3b0502d05e2516446f71f85b926000935b8585106108b2575050506020925001019038808080610863565b8054858501840152938201938101610898565b915050602094955060ff1991509291921683830152151560051b01019038808080610863565b600454600092916108fb826107e3565b808252916020906001908181169081156108c5575060011461091d5750505050565b9293945060046000527f8a35acfbc15ff81a39ae7d344fd709f28e8600b4aa8c65c6b64bfe7fe36bd19b926000935b858510610966575050506020925001019038808080610863565b805485850184015293820193810161094c565b919082519283825260005b8481106109a5575050601f19601f8460006020809697860101520116010190565b602081830181015184830182015201610984565b90602061031f928181520190610979565b346102ff57600080600319360112610aac576040519080600354906109ee826107e3565b80855291602091600191828116908115610a7f5750600114610a27575b6106c286610a1b81880382610268565b604051918291826109b9565b9350600384527fc2575a0e9e593c00f959f8c92f12db2869c3395a3b0502d05e2516446f71f85b5b838510610a6c57505050508101602001610a1b826106c238610a0b565b8054868601840152938201938101610a4f565b8796506106c297945060209350610a1b95925060ff1991501682840152151560051b820101929338610a0b565b80fd5b346102ff5760406003193601126102ff57602060ff610af6610acf610557565b600435600052600c84526040600020906001600160a01b0316600052602052604060002090565b54166040519015158152f35b346102ff5760206003193601126102ff576001600160a01b03610b2361056d565b166000526006602052602060ff604060002054166040519015158152f35b346102ff57600080600319360112610aac57604051908060045490610b65826107e3565b80855291602091600191828116908115610a7f5750600114610b91576106c286610a1b81880382610268565b9350600484527f8a35acfbc15ff81a39ae7d344fd709f28e8600b4aa8c65c6b64bfe7fe36bd19b5b838510610bd657505050508101602001610a1b826106c238610a0b565b8054868601840152938201938101610bb9565b6040519060008260195491610bfd836107e3565b80835292602090600190818116908115610c8b5750600114610c2a575b5050610c2892500383610268565b565b91509260196000527f944998273e477b495144fb8794c914197f3ccb46be2900f4698fd0ef743c9695936000925b828410610c735750610c289450505081016020013880610c1a565b85548885018301529485019487945092810192610c58565b905060209350610c2895925060ff1991501682840152151560051b8201013880610c1a565b90604051918260008254610cc3816107e3565b90818452602094600191600181169081600014610d315750600114610cf2575b505050610c2892500383610268565b600090815285812095935091905b818310610d19575050610c289350820101388080610ce3565b85548884018501529485019487945091830191610d00565b915050610c2895935060ff1991501682840152151560051b820101388080610ce3565b346102ff57600080600319360112610aac57604051908082601c5491610d79836107e3565b9283835260209460019186600182169182600014610e17575050600114610dbd575b5050610da992500383610268565b6106c2604051928284938452830190610979565b90859250601c82527f0e4562a10381dec21b205ed72637e6b1b523bdd0e4d4d50af5cd23dd4500a2115b858310610dff575050610da993508201013880610d9b565b80548389018501528794508693909201918101610de7565b91509350610da995925060ff1991501682840152151560051b8201013880610d9b565b346102ff5760006003193601126102ff576020600754604051908152f35b7f4e487b7100000000000000000000000000000000000000000000000000000000600052603260045260246000fd5b8054821015610e9f5760005260206000200190600090565b610e58565b346102ff5760206003193601126102ff576004356007548110156102ff576001600160a01b0360209160076000527fa66cc928b5edb82af9bd49922954155ab7b0942694bea4ce44661d9a8736c688015416604051908152f35b346102ff5760206003193601126102ff573360005260126020526040600020600435600052602052602060406000205415604051908152f35b60206003193601126102ff5760043580600052600c60205260ff610f716040600020336001600160a01b0316600052602052604060002090565b54161561102f5780610f906106c2926000526009602052604060002090565b610f9a81546123aa565b9055610fbb610fb382600052600b602052604060002090565b543490612536565b610fcf82600052600b602052604060002090565b55610fed33610fe883600052600a602052604060002090565b6122ed565b3461101e3361100684600052600f602052604060002090565b906001600160a01b0316600052602052604060002090565b556040519081529081906020820190565b60a460405162461bcd60e51b815260206004820152604b60248201527f546865206c69717569646974792070726f76696465722068617320616c72656160448201527f64792070726f766973696f6e6564206c697175696469747920666f722074686960648201527f7320696e737572616e63650000000000000000000000000000000000000000006084820152fd5b7f4e487b7100000000000000000000000000000000000000000000000000000000600052602160045260246000fd5b600311156110f857565b6110bf565b979395611156916001600160a01b03611172979c9e9d9c6101409c996111649760408e6111819e9961016097151582526020820152015261113d816110ee565b60608d01521660808b01528060a08b0152890190610979565b9087820360c0890152610979565b9085820360e0870152610979565b90838203610100850152610979565b946101208201520152565b346102ff5760206003193601126102ff57600435600052600e602052604060002060ff8154166106c260018301549160028401549360038101546111d260048301610cb0565b6111de60058401610cb0565b6111ea60068501610cb0565b916111f760078601610cb0565b9360096008870154960154966040519a8b9a60ff6001600160a01b038560081c169416928c6110fd565b346102ff5760006003193601126102ff576020601454604051908152f35b346102ff5760206003193601126102ff57600435600052600b6020526020604060002054604051908152f35b346102ff5760206003193601126102ff576001600160a01b0361128c61056d565b168060005260066020526040600020600160ff1982541617905560075468010000000000000000811015610263576001810180600755811015610e9f5760076000527fa66cc928b5edb82af9bd49922954155ab7b0942694bea4ce44661d9a8736c68801907fffffffffffffffffffffffff0000000000000000000000000000000000000000825416179055602060405160018152f35b6101606003193601126102ff5760043560443536610164116102ff5761135d61135682600052601d602052604060002090565b5460ff1690565b61160b5761137861138591600052601d602052604060002090565b600160ff19825416179055565b6113c76113c26113be611356846113af336001600160a01b03166000526010602052604060002090565b90600052602052604060002090565b1590565b612543565b6113d23415156125b4565b6113f360096113eb83600052600e602052604060002090565b015434612651565b61141261140a83600052600b602052604060002090565b548210612664565b61143161142983600052600b602052604060002090565b5415156126af565b611452826113af336001600160a01b0316600052600d602052604060002090565b55611477611378826113af336001600160a01b03166000526010602052604060002090565b61148f33610fe8836000526011602052604060002090565b346114b1826113af336001600160a01b03166000526012602052604060002090565b5560005b6114c982600052600a602052604060002090565b548110156115b957600080808061156861153a6114f088600052600f602052604060002090565b6115236115108961150b8c600052600a602052604060002090565b610e87565b90546001600160a01b039160031b1c1690565b6001600160a01b0316600052602052604060002090565b5461156361155e34926115578b600052600b602052604060002090565b5490612720565b612625565b612651565b6115956115896115896115108961150b8c600052600a602052604060002090565b6001600160a01b031690565b8282156115b0575bf1156115ab576001016114b5565b612759565b506108fc61159d565b60408051338152602081018490526000916116089185917fb54ae6df4548fec2c87618979584a234918d0b316ae59007568ff6be22d7a0bc91a161100633916000526013602052604060002090565b55005b60046040517f5d904cb2000000000000000000000000000000000000000000000000000000008152fd5b346102ff57600080600319360112610aac576001600160a01b03806001541633036116e75781546001600160a01b0316600080547fffffffffffffffffffffffff00000000000000000000000000000000000000001633179055906116bd7fffffffffffffffffffffffff000000000000000000000000000000000000000060015416600155565b3391167f8be0079c531659141344cd1fd0a4f28419497f9722a3daafe3b4186f6b6457e08380a380f35b606460405162461bcd60e51b815260206004820152601660248201527f4d7573742062652070726f706f736564206f776e6572000000000000000000006044820152fd5b346102ff5760206003193601126102ff57611899611894611882600435611847604061176961176484600052600e602052604060002090565b612765565b611795611790611356866113af336001600160a01b03166000526010602052604060002090565b612829565b6117a66117a0612874565b94612b6b565b6117af856128b7565b526117b9846128b7565b506117d960608201516117cb816110ee565b6117d4816110ee565b612b6b565b6117e2856128c4565b526117ec846128c4565b5060a08101516117fb856128d4565b52611805846128d4565b5060c0810151611814856128e4565b5261181e846128e4565b5061182c6020820151612b6b565b611835856128f4565b5261183f846128f4565b500151612b6b565b61185082612904565b5261185a81612904565b50611863612928565b9061187561186f610be9565b8361317d565b80516118a7575b50612e8c565b601a5463ffffffff16601b5491613081565b600255565b600254604051908152602090f35b6118b19082612cbc565b3861187c565b346102ff5760006003193601126102ff57604051806007549182815260208091019260076000527fa66cc928b5edb82af9bd49922954155ab7b0942694bea4ce44661d9a8736c688916000905b82821061191b576106c28561076f81890382610268565b83546001600160a01b031686529485019460019384019390910190611904565b346102ff5760006003193601126102ff5760206001600160a01b0360005416604051908152f35b346102ff5760006003193601126102ff576020600254604051908152f35b346102ff5760206003193601126102ff576004356016548110156102ff5760209060166000527fd833147d7dc355ba459fc788f669e58cfaf9dc25ddcd0702e87d69c7b51242890154604051908152f35b346102ff5760206003193601126102ff576004356008548110156102ff576001600160a01b0360209160086000527ff3f7a9fe364faab93b216da50a3214154f22a0a2b415b23a84c8169e8b636ee3015416604051908152f35b346102ff5760406003193601126102ff57602435600435600052600a60205260406000209081548110156102ff57611a6d6001600160a01b0391602093610e87565b9190546040519260031b1c168152f35b346102ff57600080600319360112610aac57338152601760205260ff604082205416611adb57611aac3361226f565b6040513381527fe366c1c0452ed8eec96861e9e54141ebff23c9ec89fe27b996b45f5ec388498790602090a180f35b606460405162461bcd60e51b815260206004820152601f60248201527f56616c696461746f7220697320616c72656164792072656769737465726564006044820152fd5b346102ff5760406003193601126102ff57600435611b3b610557565b6000908282526013602052611b668160408420906001600160a01b0316600052602052604060002090565b54611c2157611b8c836113af836001600160a01b0316600052600d602052604060002090565b54918083818115611c18575b829182916001600160a01b03871690f1156115ab57818181611bec7fd1ecb6c48be11bc10ebf5b0c43978edf1b7fcbc3f5adb6a5ea66952d6a73f72a946110066106c2986000526013602052604060002090565b55604080516001600160a01b039290921682526020820192909252a16040519081529081906020820190565b506108fc611b98565b608460405162461bcd60e51b815260206004820152602560248201527f54686520636c69656e742068617320616c726561647920636c61696d6564207060448201527f61796f75740000000000000000000000000000000000000000000000000000006064820152fd5b346102ff5760206003193601126102ff5760043560005260096020526020604060002054604051908152f35b346102ff5760206003193601126102ff57611cd061056d565b6001600160a01b03806000541691823303611d83571690338214611d3f57817fffffffffffffffffffffffff000000000000000000000000000000000000000060015416176001557fed8889f560326eb138920d842192f0eb3dd22b4f139c87a2c57538e05bae1278600080a3005b606460405162461bcd60e51b815260206004820152601760248201527f43616e6e6f74207472616e7366657220746f2073656c660000000000000000006044820152fd5b606460405162461bcd60e51b815260206004820152601660248201527f4f6e6c792063616c6c61626c65206279206f776e6572000000000000000000006044820152fd5b15611dce57565b608460405162461bcd60e51b815260206004820152603060248201527f54686520696e737572616e63652070726f76696465722073686f756c6420667560448201527f6e642074686520696e737572616e6365000000000000000000000000000000006064820152fd5b611e41826110ee565b52565b90611e4e816110ee565b60ff60ff198354169116179055565b818110611e68575050565b60008155600101611e5d565b90601f8211611e81575050565b610c289160036000527fc2575a0e9e593c00f959f8c92f12db2869c3395a3b0502d05e2516446f71f85b906020601f840160051c83019310611ecb575b601f0160051c0190611e5d565b9091508190611ebe565b90601f8211611ee2575050565b610c2891601c6000527f0e4562a10381dec21b205ed72637e6b1b523bdd0e4d4d50af5cd23dd4500a211906020601f840160051c83019310611ecb57601f0160051c0190611e5d565b90601f8211611f38575050565b610c289160046000527f8a35acfbc15ff81a39ae7d344fd709f28e8600b4aa8c65c6b64bfe7fe36bd19b906020601f840160051c83019310611ecb57601f0160051c0190611e5d565b9190601f8111611f9057505050565b610c28926000526020600020906020601f840160051c83019310611ecb57601f0160051c0190611e5d565b90815167ffffffffffffffff811161026357611fe181611fdc601c546107e3565b611ed5565b602080601f8311600114612023575081906120139394600092612018575b50506000198260011b9260031b1c19161790565b601c55565b015190503880611fff565b90601f19831694612056601c6000527f0e4562a10381dec21b205ed72637e6b1b523bdd0e4d4d50af5cd23dd4500a21190565b926000905b87821061209357505083600195961061207a575b505050811b01601c55565b015160001960f88460031b161c1916905538808061206f565b8060018596829496860151815501950193019061205b565b919091825167ffffffffffffffff8111610263576120d3816120cd84546107e3565b84611f81565b602080601f8311600114612109575081906121059394956000926120185750506000198260011b9260031b1c19161790565b9055565b90601f1983169561211f85600052602060002090565b926000905b88821061215c57505083600195969710612143575b505050811b019055565b015160001960f88460031b161c19169055388080612139565b80600185968294968601518155019501930190612124565b9061014060099161219b6121888251151590565b859060ff60ff1983541691151516179055565b6020810151600185015560408101516002850155612218600385016121cd60608401516121c7816110ee565b82611e44565b608083015181547fffffffffffffffffffffff0000000000000000000000000000000000000000ff1660089190911b74ffffffffffffffffffffffffffffffffffffffff0016179055565b61222960a0820151600486016120ab565b61223a60c0820151600586016120ab565b61224b60e0820151600686016120ab565b61225d610100820151600786016120ab565b61012081015160088501550151910155565b60155468010000000000000000811015610263576001810180601555811015610e9f576001600160a01b039060156000527f55f448fdea98c4d29eb340757ef0a66cd03dbb9538908a6a81d96026b71ec4750191167fffffffffffffffffffffffff0000000000000000000000000000000000000000825416179055565b8054680100000000000000008110156102635761230f91600182018155610e87565b6001600160a01b039291928084549260031b9316831b921b1916179055565b60165468010000000000000000811015610263576001810180601655811015610e9f5760166000527fd833147d7dc355ba459fc788f669e58cfaf9dc25ddcd0702e87d69c7b51242890155565b7f4e487b7100000000000000000000000000000000000000000000000000000000600052601160045260246000fd5b60001981146123b95760010190565b61237b565b9694929b9a9997939095919b3415156123d690611dc7565b6123de61028b565b600181529c8d6020015260408d01526123fa9060608d01611e38565b3360808c0152369061240b926102c8565b60a08a0152369061241b926102c8565b60c0880152369061242b926102c8565b60e0860152369061243b926102c8565b610100840152610120830152610140820152601490815461246690600052600e602052604060002090565b9061247091612174565b33815461248790600052600a602052604060002090565b90612491916122ed565b805461249c9061232e565b3481546124b390600052600b602052604060002090565b55343382546124cc90600052600f602052604060002090565b906124e991906001600160a01b0316600052602052604060002090565b5580546040518181527fa1467d518e9fa2c94583b5b96dc6d322c27e6ddfbbc24450b818b91c909046a690602090a1612521906123aa565b6014555490565b90602082018092116123b957565b919082018092116123b957565b1561254a57565b608460405162461bcd60e51b815260206004820152603360248201527f54686520636c69656e742068617320616c72656164792074616b656e2074686960448201527f732074797065206f6620696e737572616e6365000000000000000000000000006064820152fd5b156125bb57565b608460405162461bcd60e51b815260206004820152602b60248201527f54686520636c69656e742073686f756c642073656e642045544820746f20627560448201527f7920696e737572616e63650000000000000000000000000000000000000000006064820152fd5b906064820291808304606414901517156123b957565b908160011b91808304600214901517156123b957565b818102929181159184041417156123b957565b1561266b57565b606460405162461bcd60e51b815260206004820152601c60248201527f596f752073686f756c64206275792077697468206c65737320455448000000006044820152fd5b156126b657565b608460405162461bcd60e51b815260206004820152602b60248201527f4c697175696469747920646f6573206e6f7420657869737420666f722074686960448201527f7320696e737572616e63650000000000000000000000000000000000000000006064820152fd5b811561272a570490565b7f4e487b7100000000000000000000000000000000000000000000000000000000600052601260045260246000fd5b6040513d6000823e3d90fd5b90600961277061028b565b9261278561277f825460ff1690565b15158552565b60018101546020850152600281015460408501526127cf6001600160a01b0360038301546127b960ff821660608901611e38565b60081c1660808601906001600160a01b03169052565b6127db60048201610cb0565b60a08501526127ec60058201610cb0565b60c08501526127fd60068201610cb0565b60e085015261280e60078201610cb0565b61010085015260088101546101208501520154610140830152565b1561283057565b606460405162461bcd60e51b815260206004820152601e60248201527f436c69656e7420646f6573206e6f74206861766520696e737572616e636500006044820152fd5b6040519060e0820182811067ffffffffffffffff82111761026357604052600682528160005b60c081106128a6575050565b80606060208093850101520161289a565b805115610e9f5760200190565b805160011015610e9f5760400190565b805160021015610e9f5760600190565b805160031015610e9f5760800190565b805160041015610e9f5760a00190565b805160051015610e9f5760c00190565b8051821015610e9f5760209160051b010190565b6040519060e0820182811067ffffffffffffffff82111761026357604052606060c08360008152600060208201526000604082015282808201528260808201528260a08201520152565b90815167ffffffffffffffff811161026357612998816129936004546107e3565b611f2b565b602080601f83116001146129ce575081906129c993946000926120185750506000198260011b9260031b1c19161790565b600455565b90601f19831694612a0160046000527f8a35acfbc15ff81a39ae7d344fd709f28e8600b4aa8c65c6b64bfe7fe36bd19b90565b926000905b878210612a3e575050836001959610612a25575b505050811b01600455565b015160001960f88460031b161c19169055388080612a1a565b80600185968294968601518155019501930190612a06565b9060608252600091601c54612a6a816107e3565b806060840152608091600190600181169081600014612b105750600114612ab2575b505050612aa4838261031f9495036020840152610836565b9060408183039101526108eb565b601c600090815295507f0e4562a10381dec21b205ed72637e6b1b523bdd0e4d4d50af5cd23dd4500a2115b828710612afb575050505091820160800191612aa461031f38612a8c565b80548786018501526020909601958101612add565b61031f969750612aa49450608093925060ff1991501682850152151560051b830101939238612a8c565b90612b44826102ac565b612b516040519182610268565b828152601f19612b6182946102ac565b0190602036910137565b806000917a184f03e93ff9f4daa797ed6e38ed64bf6a1f01000000000000000080821015612cae575b506d04ee2d6d415b85acef810000000080831015612c9f575b50662386f26fc1000080831015612c90575b506305f5e10080831015612c81575b5061271080831015612c72575b506064821015612c62575b600a80921015612c58575b600190816021612c0360018701612b3a565b95860101905b612c15575b5050505090565b600019849101917f30313233343536373839616263646566000000000000000000000000000000008282061a835304918215612c5357919082612c09565b612c0e565b9160010191612bf1565b9190606460029104910191612be6565b60049193920491019138612bdb565b60089193920491019138612bce565b60109193920491019138612bbf565b60209193920491019138612bad565b604093508104915038612b94565b815115612cc95760a00152565b60046040517ffe936cb7000000000000000000000000000000000000000000000000000000008152fd5b60405190612d0082610247565b600c82527f636f64654c6f636174696f6e00000000000000000000000000000000000000006020830152565b60405190612d3982610247565b600882527f6c616e67756167650000000000000000000000000000000000000000000000006020830152565b600111156110f857565b60405190612d7c82610247565b600682527f736f7572636500000000000000000000000000000000000000000000000000006020830152565b60405190612db582610247565b600482527f61726773000000000000000000000000000000000000000000000000000000006020830152565b60405190612dee82610247565b600f82527f736563726574734c6f636174696f6e00000000000000000000000000000000006020830152565b60405190612e2782610247565b600782527f73656372657473000000000000000000000000000000000000000000000000006020830152565b60405190612e6082610247565b600982527f62797465734172677300000000000000000000000000000000000000000000006020830152565b612e946131d8565b90612ea6612ea0612cf3565b83613228565b612ec38151612eb4816110ee565b612ebd816110ee565b836132eb565b612ece612ea0612d2c565b612ee86040820151612edf81612d65565b612ebd81612d65565b612ef3612ea0612d6f565b612f01606082015183613228565b60a08101805151613019575b506080810190815151612f81575b60c0915001805151612f2e575b50515190565b91612f3a612ea0612e53565b612f438261338c565b60005b83518051821015612f6e5790612f68612f6182600194612914565b51856134b4565b01612f46565b50509150612f7b81613427565b38612f28565b602081018051612f90816110ee565b612f99816110ee565b15612fef5760c092612fd2612fea92612fb9612fb3612de1565b88613228565b51612fc3816110ee565b612fcc816110ee565b866132eb565b612fe3612fdd612e1a565b86613228565b51846134b4565b612f1b565b60046040517fa80d31f7000000000000000000000000000000000000000000000000000000008152fd5b9261302b613025612da8565b84613228565b6130348361338c565b60005b8451805182101561305f579061305961305282600194612914565b5186613228565b01613037565b5050925061306c82613427565b38612f0d565b908160209103126102ff575190565b6130d29060209263ffffffff9460405195869485947f461d2762000000000000000000000000000000000000000000000000000000008652610c91600487015260a0602487015260a4860190610979565b92600160448601521660648401526084830152038160006001600160a01b037f0000000000000000000000000000000000000000000000000000000000000000165af19081156115ab5760009161314e575b50807f1131472297a800fee664d1d89cfa8f7676ff07189ecc53f80bbb5f4969099db8600080a290565b613170915060203d602011613176575b6131688183610268565b810190613072565b38613124565b503d61315e565b815115613194576000808252604082015260600152565b60046040517f22ce3edd000000000000000000000000000000000000000000000000000000008152fd5b604051906131cb82610247565b6000602083606081520152565b6040516131e481610247565b6131ec6131be565b80825260208201600081526131ff6131be565b5061010060208301526040518092526000825261012082019182106102ff576000916040525290565b815161326d92919067ffffffffffffffff81169060178211613270576132589150606060ff845192161790613983565b505b51906132646131be565b50805191613c03565b50565b5060ff81116132955761328f90613287835161378a565b508251613b8f565b5061325a565b61ffff81116132b45761328f906132ac8351613725565b508251613b04565b63ffffffff81116132d55761328f906132cd83516136c0565b508251613a79565b61328f906132e38351613650565b5082516139ee565b908151916132f76131be565b5082515160018101908181116123b9576020850151811015613350575b60c26020610c289651928301015380518211613348575b50506040519160208301526020825261334382610247565b6134b4565b52388061332b565b8160011b94828604600214831517156123b957602081613382610c289861337b60c295519184613539565b508261358b565b5096505050613314565b8051906133976131be565b5081515160018101908181116123b95760208401518110156133e5575b609f60208095519283010153805182116133dd575b505001805190600182018092116123b95752565b5238806133c9565b8160011b93828504600214831517156123b95760208161340e829761337b609f95519184613539565b50955050506133b4565b90601f1982019182116123b957565b8051906134326131be565b5081515160018101908181116123b9576020840151811015613481575b60ff6020809551928301015380518211613479575b50500180519060001982019182116123b95752565b523880613464565b8160011b93828504600214831517156123b9576020816134aa829761337b60ff95519184613539565b509550505061344f565b815161326d92919067ffffffffffffffff811690601782116134e4576132589150604060ff845192161790613983565b5060ff81116134fb5761328f90613287835161391e565b61ffff81116135125761328f906132ac83516138b9565b63ffffffff811161352b5761328f906132cd8351613854565b61328f906132e383516137ef565b906135426131be565b50601f811680613571575b50806020830152604051908183526000825281016020019081106102ff5760405290565b602003602081116123b95781018091116123b9573861354d565b906135946131be565b508051906135a06131be565b506135ae8151831115613bfc565b825151916135bc8184612536565b60209260208601518211613639575b602091865183815197820101968211613631575b505001915b808210156136095750600019906020036101000a019081199051169082511617905290565b90919261362561361f61362b9286518152612528565b94612528565b92613418565b906135e4565b5238806135df565b61364b6136458361263b565b87613caf565b6135cb565b6136586131be565b5080515160018101908181116123b9576020830151811015613691575b607b6020845192830101538051821161368d57505090565b5290565b8160011b828104600214831517156123b9576136ba906136b385519186613539565b508461358b565b50613675565b6136c86131be565b5080515160018101908181116123b95760208301518110156136fd575b607a6020845192830101538051821161368d57505090565b8160011b828104600214831517156123b95761371f906136b385519186613539565b506136e5565b61372d6131be565b5080515160018101908181116123b9576020830151811015613762575b60796020845192830101538051821161368d57505090565b8160011b828104600214831517156123b957613784906136b385519186613539565b5061374a565b6137926131be565b5080515160018101908181116123b95760208301518110156137c7575b60786020845192830101538051821161368d57505090565b8160011b828104600214831517156123b9576137e9906136b385519186613539565b506137af565b6137f76131be565b5080515160018101908181116123b957602083015181101561382c575b605b6020845192830101538051821161368d57505090565b8160011b828104600214831517156123b95761384e906136b385519186613539565b50613814565b61385c6131be565b5080515160018101908181116123b9576020830151811015613891575b605a6020845192830101538051821161368d57505090565b8160011b828104600214831517156123b9576138b3906136b385519186613539565b50613879565b6138c16131be565b5080515160018101908181116123b95760208301518110156138f6575b60596020845192830101538051821161368d57505090565b8160011b828104600214831517156123b957613918906136b385519186613539565b506138de565b6139266131be565b5080515160018101908181116123b957602083015181101561395b575b60586020845192830101538051821161368d57505090565b8160011b828104600214831517156123b95761397d906136b385519186613539565b50613943565b9061398c6131be565b5081515160018101918282116123b95760208401518210156139bf575b6020845192830101538051821161368d57505090565b8260011b838104600214841517156123b9576139e8906139e186519187613539565b508561358b565b506139a9565b906139f76131be565b508151518060080191826008116123b95760208401518311613a51575b6008845192830101907fffffffffffffffffffffffffffffffffffffffffffffffff00000000000000008251161790528051821161368d57505090565b8260011b838104600214841517156123b957613a73906139e186519187613539565b50613a14565b90613a826131be565b508151518060040191826004116123b95760208401518311613adc575b6004845192830101907fffffffffffffffffffffffffffffffffffffffffffffffffffffffff000000008251161790528051821161368d57505090565b8260011b838104600214841517156123b957613afe906139e186519187613539565b50613a9f565b90613b0d6131be565b508151518060020191826002116123b95760208401518311613b67575b6002845192830101907fffffffffffffffffffffffffffffffffffffffffffffffffffffffffffff00008251161790528051821161368d57505090565b8260011b838104600214841517156123b957613b89906139e186519187613539565b50613b2a565b90613b986131be565b508151518060010191826001116123b95760208401518311613bd4575b60018451928301019060ff198251161790528051821161368d57505090565b8260011b838104600214841517156123b957613bf6906139e186519187613539565b50613bb5565b156102ff57565b9190613c0d6131be565b50613c1b8151831115613bfc565b825151916020613c2b8285612536565b928193828701518111613c98575b865183815197820101968211613c90575b505001915b80821015613c745750600019906020036101000a019081199051169082511617905290565b90919261362561361f613c8a9286518152612528565b90613c4f565b523880613c4a565b613caa613ca48261263b565b88613caf565b613c39565b9061326d91613cc081519282613539565b5061358b56fea2646970667358221220c8e453ab5f7ff5c4b1a9e2157348d9eb4d3a890a2202002ad2bd3e57488fd98264736f6c63430008180033",
  "devdoc": {
    "kind": "dev",
    "methods": {
      "buy(uint256,uint256,uint256,uint256[8])": {
        "details": "Buy weather insurance."
      },
      "claimInsurancePayout(uint256)": {
        "details": "Claim insurance"
      },
      "constructor": {
        "details": "Constructor      initialize global variable for insurance ids"
      },
      "fundInsurance(uint256)": {
        "details": "liquidity providers can deposit funds in any amount to support any insurance"
      },
      "getInsuranceFunds(uint256)": {
        "details": "to see how much fund an insurance is supported with"
      },
      "handleOracleFulfillment(bytes32,bytes,bytes)": {
        "details": "Either response or error parameter will be set, but never both.",
        "params": {
          "err": "Aggregated error either from the request's source code or from the execution pipeline.",
          "requestId": "The requestId returned by FunctionsClient.sendRequest().",
          "response": "Aggregated response from the request's source code."
        }
      },
      "payout(uint256,address)": {
        "details": "Transfers eligible payout funds to insuree"
      },
      "registerInsurance(string,uint256,uint256,uint8,string,string,string,uint256,uint256)": {
        "details": "Register insurance by provising all required fields. The caller should be an insurance provider"
      },
      "registerInsuranceProvider(address)": {
        "details": "Add an insurance to the registration queue      Can only be called from InsuranceApp contract"
      },
      "registerValidator()": {
        "details": "to register a validator."
      }
    },
    "stateVariables": {
      "externalNullifierHash": {
        "details": "The keccak256 hash of the externalNullifier (unique identifier of the action performed), combination of appId and action"
      },
      "groupId": {
        "details": "The World ID group ID (1 for Orb-verified)"
      },
      "nullifierHashes": {
        "details": "Whether a nullifier hash has been used already. Used to guarantee an action is only performed once by a single person"
      },
      "worldId": {
        "details": "The address of the World ID Router contract that will be used for verifying proofs"
      }
    },
    "version": 1
  },
  "userdoc": {
    "errors": {
      "InvalidNullifier()": [
        {
          "notice": "Thrown when attempting to reuse a nullifier"
        }
      ]
    },
    "kind": "user",
    "methods": {
      "acceptOwnership()": {
        "notice": "Allows an ownership transfer to be completed by the recipient."
      },
      "handleOracleFulfillment(bytes32,bytes,bytes)": {
        "notice": "Chainlink Functions response handler called by the Functions Router during fullilment from the designated transmitter node in an OCR round."
      },
      "owner()": {
        "notice": "Get the current owner"
      },
      "transferOwnership(address)": {
        "notice": "Allows an owner to begin transferring ownership to a new address."
      }
    },
    "version": 1
  },
  "storageLayout": {
    "storage": [
      {
        "astId": 816,
        "contract": "contracts/InsuranceData.sol:InsuranceData",
        "label": "s_owner",
        "offset": 0,
        "slot": "0",
        "type": "t_address"
      },
      {
        "astId": 818,
        "contract": "contracts/InsuranceData.sol:InsuranceData",
        "label": "s_pendingOwner",
        "offset": 0,
        "slot": "1",
        "type": "t_address"
      },
      {
        "astId": 3705,
        "contract": "contracts/InsuranceData.sol:InsuranceData",
        "label": "s_lastRequestId",
        "offset": 0,
        "slot": "2",
        "type": "t_bytes32"
      },
      {
        "astId": 3707,
        "contract": "contracts/InsuranceData.sol:InsuranceData",
        "label": "s_lastResponse",
        "offset": 0,
        "slot": "3",
        "type": "t_bytes_storage"
      },
      {
        "astId": 3709,
        "contract": "contracts/InsuranceData.sol:InsuranceData",
        "label": "s_lastError",
        "offset": 0,
        "slot": "4",
        "type": "t_bytes_storage"
      },
      {
        "astId": 3711,
        "contract": "contracts/InsuranceData.sol:InsuranceData",
        "label": "contractOwner",
        "offset": 0,
        "slot": "5",
        "type": "t_address"
      },
      {
        "astId": 3715,
        "contract": "contracts/InsuranceData.sol:InsuranceData",
        "label": "registeredInsuranceProvider",
        "offset": 0,
        "slot": "6",
        "type": "t_mapping(t_address,t_bool)"
      },
      {
        "astId": 3718,
        "contract": "contracts/InsuranceData.sol:InsuranceData",
        "label": "providers",
        "offset": 0,
        "slot": "7",
        "type": "t_array(t_address)dyn_storage"
      },
      {
        "astId": 3721,
        "contract": "contracts/InsuranceData.sol:InsuranceData",
        "label": "alreadyFundedInsuranceProviders",
        "offset": 0,
        "slot": "8",
        "type": "t_array(t_address)dyn_storage"
      },
      {
        "astId": 3725,
        "contract": "contracts/InsuranceData.sol:InsuranceData",
        "label": "numliquidityproviders",
        "offset": 0,
        "slot": "9",
        "type": "t_mapping(t_uint256,t_uint256)"
      },
      {
        "astId": 3730,
        "contract": "contracts/InsuranceData.sol:InsuranceData",
        "label": "insurancelps",
        "offset": 0,
        "slot": "10",
        "type": "t_mapping(t_uint256,t_array(t_address)dyn_storage)"
      },
      {
        "astId": 3734,
        "contract": "contracts/InsuranceData.sol:InsuranceData",
        "label": "insuranceliquidity",
        "offset": 0,
        "slot": "11",
        "type": "t_mapping(t_uint256,t_uint256)"
      },
      {
        "astId": 3740,
        "contract": "contracts/InsuranceData.sol:InsuranceData",
        "label": "hasProvidedLiquidity",
        "offset": 0,
        "slot": "12",
        "type": "t_mapping(t_uint256,t_mapping(t_address,t_bool))"
      },
      {
        "astId": 3746,
        "contract": "contracts/InsuranceData.sol:InsuranceData",
        "label": "claimablePayout",
        "offset": 0,
        "slot": "13",
        "type": "t_mapping(t_address,t_mapping(t_uint256,t_uint256))"
      },
      {
        "astId": 3779,
        "contract": "contracts/InsuranceData.sol:InsuranceData",
        "label": "insurances",
        "offset": 0,
        "slot": "14",
        "type": "t_mapping(t_uint256,t_struct(Insurance)3774_storage)"
      },
      {
        "astId": 3785,
        "contract": "contracts/InsuranceData.sol:InsuranceData",
        "label": "liquidityperlp",
        "offset": 0,
        "slot": "15",
        "type": "t_mapping(t_uint256,t_mapping(t_address,t_uint256))"
      },
      {
        "astId": 3791,
        "contract": "contracts/InsuranceData.sol:InsuranceData",
        "label": "clientinsured",
        "offset": 0,
        "slot": "16",
        "type": "t_mapping(t_address,t_mapping(t_uint256,t_bool))"
      },
      {
        "astId": 3796,
        "contract": "contracts/InsuranceData.sol:InsuranceData",
        "label": "insuranceProviderInsurees",
        "offset": 0,
        "slot": "17",
        "type": "t_mapping(t_uint256,t_array(t_address)dyn_storage)"
      },
      {
        "astId": 3802,
        "contract": "contracts/InsuranceData.sol:InsuranceData",
        "label": "insuredamount",
        "offset": 0,
        "slot": "18",
        "type": "t_mapping(t_address,t_mapping(t_uint256,t_uint256))"
      },
      {
        "astId": 3808,
        "contract": "contracts/InsuranceData.sol:InsuranceData",
        "label": "insuredpayout",
        "offset": 0,
        "slot": "19",
        "type": "t_mapping(t_uint256,t_mapping(t_address,t_uint256))"
      },
      {
        "astId": 3810,
        "contract": "contracts/InsuranceData.sol:InsuranceData",
        "label": "insuranceId",
        "offset": 0,
        "slot": "20",
        "type": "t_uint256"
      },
      {
        "astId": 3813,
        "contract": "contracts/InsuranceData.sol:InsuranceData",
        "label": "validators",
        "offset": 0,
        "slot": "21",
        "type": "t_array(t_address)dyn_storage"
      },
      {
        "astId": 3816,
        "contract": "contracts/InsuranceData.sol:InsuranceData",
        "label": "insuranceIds",
        "offset": 0,
        "slot": "22",
        "type": "t_array(t_uint256)dyn_storage"
      },
      {
        "astId": 3820,
        "contract": "contracts/InsuranceData.sol:InsuranceData",
        "label": "validatorAlreadyExists",
        "offset": 0,
        "slot": "23",
        "type": "t_mapping(t_address,t_bool)"
      },
      {
        "astId": 3865,
        "contract": "contracts/InsuranceData.sol:InsuranceData",
        "label": "router",
        "offset": 0,
        "slot": "24",
        "type": "t_address"
      },
      {
        "astId": 3868,
        "contract": "contracts/InsuranceData.sol:InsuranceData",
        "label": "source",
        "offset": 0,
        "slot": "25",
        "type": "t_string_storage"
      },
      {
        "astId": 3871,
        "contract": "contracts/InsuranceData.sol:InsuranceData",
        "label": "gasLimit",
        "offset": 0,
        "slot": "26",
        "type": "t_uint32"
      },
      {
        "astId": 3874,
        "contract": "contracts/InsuranceData.sol:InsuranceData",
        "label": "donID",
        "offset": 0,
        "slot": "27",
        "type": "t_bytes32"
      },
      {
        "astId": 3876,
        "contract": "contracts/InsuranceData.sol:InsuranceData",
        "label": "character",
        "offset": 0,
        "slot": "28",
        "type": "t_string_storage"
      },
      {
        "astId": 3897,
        "contract": "contracts/InsuranceData.sol:InsuranceData",
        "label": "nullifierHashes",
        "offset": 0,
        "slot": "29",
        "type": "t_mapping(t_uint256,t_bool)"
      }
    ],
    "types": {
      "t_address": {
        "encoding": "inplace",
        "label": "address",
        "numberOfBytes": "20"
      },
      "t_array(t_address)dyn_storage": {
        "base": "t_address",
        "encoding": "dynamic_array",
        "label": "address[]",
        "numberOfBytes": "32"
      },
      "t_array(t_uint256)dyn_storage": {
        "base": "t_uint256",
        "encoding": "dynamic_array",
        "label": "uint256[]",
        "numberOfBytes": "32"
      },
      "t_bool": {
        "encoding": "inplace",
        "label": "bool",
        "numberOfBytes": "1"
      },
      "t_bytes32": {
        "encoding": "inplace",
        "label": "bytes32",
        "numberOfBytes": "32"
      },
      "t_bytes_storage": {
        "encoding": "bytes",
        "label": "bytes",
        "numberOfBytes": "32"
      },
      "t_enum(TypeOfInsurance)3750": {
        "encoding": "inplace",
        "label": "enum InsuranceData.TypeOfInsurance",
        "numberOfBytes": "1"
      },
      "t_mapping(t_address,t_bool)": {
        "encoding": "mapping",
        "key": "t_address",
        "label": "mapping(address => bool)",
        "numberOfBytes": "32",
        "value": "t_bool"
      },
      "t_mapping(t_address,t_mapping(t_uint256,t_bool))": {
        "encoding": "mapping",
        "key": "t_address",
        "label": "mapping(address => mapping(uint256 => bool))",
        "numberOfBytes": "32",
        "value": "t_mapping(t_uint256,t_bool)"
      },
      "t_mapping(t_address,t_mapping(t_uint256,t_uint256))": {
        "encoding": "mapping",
        "key": "t_address",
        "label": "mapping(address => mapping(uint256 => uint256))",
        "numberOfBytes": "32",
        "value": "t_mapping(t_uint256,t_uint256)"
      },
      "t_mapping(t_address,t_uint256)": {
        "encoding": "mapping",
        "key": "t_address",
        "label": "mapping(address => uint256)",
        "numberOfBytes": "32",
        "value": "t_uint256"
      },
      "t_mapping(t_uint256,t_array(t_address)dyn_storage)": {
        "encoding": "mapping",
        "key": "t_uint256",
        "label": "mapping(uint256 => address[])",
        "numberOfBytes": "32",
        "value": "t_array(t_address)dyn_storage"
      },
      "t_mapping(t_uint256,t_bool)": {
        "encoding": "mapping",
        "key": "t_uint256",
        "label": "mapping(uint256 => bool)",
        "numberOfBytes": "32",
        "value": "t_bool"
      },
      "t_mapping(t_uint256,t_mapping(t_address,t_bool))": {
        "encoding": "mapping",
        "key": "t_uint256",
        "label": "mapping(uint256 => mapping(address => bool))",
        "numberOfBytes": "32",
        "value": "t_mapping(t_address,t_bool)"
      },
      "t_mapping(t_uint256,t_mapping(t_address,t_uint256))": {
        "encoding": "mapping",
        "key": "t_uint256",
        "label": "mapping(uint256 => mapping(address => uint256))",
        "numberOfBytes": "32",
        "value": "t_mapping(t_address,t_uint256)"
      },
      "t_mapping(t_uint256,t_struct(Insurance)3774_storage)": {
        "encoding": "mapping",
        "key": "t_uint256",
        "label": "mapping(uint256 => struct InsuranceData.Insurance)",
        "numberOfBytes": "32",
        "value": "t_struct(Insurance)3774_storage"
      },
      "t_mapping(t_uint256,t_uint256)": {
        "encoding": "mapping",
        "key": "t_uint256",
        "label": "mapping(uint256 => uint256)",
        "numberOfBytes": "32",
        "value": "t_uint256"
      },
      "t_string_storage": {
        "encoding": "bytes",
        "label": "string",
        "numberOfBytes": "32"
      },
      "t_struct(Insurance)3774_storage": {
        "encoding": "inplace",
        "label": "struct InsuranceData.Insurance",
        "members": [
          {
            "astId": 3752,
            "contract": "contracts/InsuranceData.sol:InsuranceData",
            "label": "isRegistered",
            "offset": 0,
            "slot": "0",
            "type": "t_bool"
          },
          {
            "astId": 3754,
            "contract": "contracts/InsuranceData.sol:InsuranceData",
            "label": "start",
            "offset": 0,
            "slot": "1",
            "type": "t_uint256"
          },
          {
            "astId": 3756,
            "contract": "contracts/InsuranceData.sol:InsuranceData",
            "label": "end",
            "offset": 0,
            "slot": "2",
            "type": "t_uint256"
          },
          {
            "astId": 3759,
            "contract": "contracts/InsuranceData.sol:InsuranceData",
            "label": "typeOfIns",
            "offset": 0,
            "slot": "3",
            "type": "t_enum(TypeOfInsurance)3750"
          },
          {
            "astId": 3761,
            "contract": "contracts/InsuranceData.sol:InsuranceData",
            "label": "provider",
            "offset": 1,
            "slot": "3",
            "type": "t_address"
          },
          {
            "astId": 3763,
            "contract": "contracts/InsuranceData.sol:InsuranceData",
            "label": "lat",
            "offset": 0,
            "slot": "4",
            "type": "t_string_storage"
          },
          {
            "astId": 3765,
            "contract": "contracts/InsuranceData.sol:InsuranceData",
            "label": "lon",
            "offset": 0,
            "slot": "5",
            "type": "t_string_storage"
          },
          {
            "astId": 3767,
            "contract": "contracts/InsuranceData.sol:InsuranceData",
            "label": "name",
            "offset": 0,
            "slot": "6",
            "type": "t_string_storage"
          },
          {
            "astId": 3769,
            "contract": "contracts/InsuranceData.sol:InsuranceData",
            "label": "description",
            "offset": 0,
            "slot": "7",
            "type": "t_string_storage"
          },
          {
            "astId": 3771,
            "contract": "contracts/InsuranceData.sol:InsuranceData",
            "label": "riskNumerator",
            "offset": 0,
            "slot": "8",
            "type": "t_uint256"
          },
          {
            "astId": 3773,
            "contract": "contracts/InsuranceData.sol:InsuranceData",
            "label": "riskDenominator",
            "offset": 0,
            "slot": "9",
            "type": "t_uint256"
          }
        ],
        "numberOfBytes": "320"
      },
      "t_uint256": {
        "encoding": "inplace",
        "label": "uint256",
        "numberOfBytes": "32"
      },
      "t_uint32": {
        "encoding": "inplace",
        "label": "uint32",
        "numberOfBytes": "4"
      }
    }
  }
}