{
  "_format": "hh-sol-artifact-1",
  "contractName": "InsuranceData",
  "sourceName": "contracts/InsuranceData.sol",
  "address": "0x3A71249403D3E7468183E479BdF879D60c0190eC",
  "abi": [
    {
      "inputs": [],
      "stateMutability": "nonpayable",
      "type": "constructor"
    },
    {
      "anonymous": false,
      "inputs": [
        {
          "indexed": false,
          "internalType": "address",
          "name": "contractAddress",
          "type": "address"
        }
      ],
      "name": "ContractAuthorized",
      "type": "event"
    },
    {
      "anonymous": false,
      "inputs": [
        {
          "indexed": false,
          "internalType": "address",
          "name": "contractAddress",
          "type": "address"
        }
      ],
      "name": "ContractDeauthorized",
      "type": "event"
    },
    {
      "anonymous": false,
      "inputs": [
        {
          "indexed": false,
          "internalType": "uint256",
          "name": "insuranceid",
          "type": "uint256"
        }
      ],
      "name": "InsuranceAdded",
      "type": "event"
    },
    {
      "anonymous": false,
      "inputs": [
        {
          "indexed": false,
          "internalType": "address",
          "name": "insuree",
          "type": "address"
        },
        {
          "indexed": false,
          "internalType": "uint256",
          "name": "insuranceid",
          "type": "uint256"
        }
      ],
      "name": "InsuranceBought",
      "type": "event"
    },
    {
      "anonymous": false,
      "inputs": [
        {
          "indexed": false,
          "internalType": "address",
          "name": "insuree",
          "type": "address"
        },
        {
          "indexed": false,
          "internalType": "uint256",
          "name": "payout",
          "type": "uint256"
        }
      ],
      "name": "InsuranceClaimed",
      "type": "event"
    },
    {
      "stateMutability": "payable",
      "type": "fallback"
    },
    {
      "inputs": [
        {
          "internalType": "address",
          "name": "",
          "type": "address"
        }
      ],
      "name": "accountBalance",
      "outputs": [
        {
          "internalType": "uint256",
          "name": "",
          "type": "uint256"
        }
      ],
      "stateMutability": "view",
      "type": "function"
    },
    {
      "inputs": [
        {
          "internalType": "uint256",
          "name": "",
          "type": "uint256"
        }
      ],
      "name": "alreadyFundedInsuranceProviders",
      "outputs": [
        {
          "internalType": "address",
          "name": "",
          "type": "address"
        }
      ],
      "stateMutability": "view",
      "type": "function"
    },
    {
      "inputs": [
        {
          "internalType": "string",
          "name": "",
          "type": "string"
        }
      ],
      "name": "availableInsurances",
      "outputs": [
        {
          "internalType": "bool",
          "name": "",
          "type": "bool"
        }
      ],
      "stateMutability": "view",
      "type": "function"
    },
    {
      "inputs": [
        {
          "internalType": "uint256",
          "name": "insuranceid",
          "type": "uint256"
        }
      ],
      "name": "buy",
      "outputs": [],
      "stateMutability": "payable",
      "type": "function"
    },
    {
      "inputs": [
        {
          "internalType": "address",
          "name": "",
          "type": "address"
        },
        {
          "internalType": "uint256",
          "name": "",
          "type": "uint256"
        }
      ],
      "name": "claimablePayout",
      "outputs": [
        {
          "internalType": "uint256",
          "name": "",
          "type": "uint256"
        }
      ],
      "stateMutability": "view",
      "type": "function"
    },
    {
      "inputs": [
        {
          "internalType": "uint256",
          "name": "insuranceid",
          "type": "uint256"
        }
      ],
      "name": "fundInsurance",
      "outputs": [
        {
          "internalType": "uint256",
          "name": "",
          "type": "uint256"
        }
      ],
      "stateMutability": "payable",
      "type": "function"
    },
    {
      "inputs": [],
      "name": "getFundedInsuranceProviders",
      "outputs": [
        {
          "internalType": "address[]",
          "name": "",
          "type": "address[]"
        }
      ],
      "stateMutability": "view",
      "type": "function"
    },
    {
      "inputs": [
        {
          "internalType": "uint256",
          "name": "insuranceid",
          "type": "uint256"
        }
      ],
      "name": "getInsuranceFunds",
      "outputs": [
        {
          "internalType": "uint256",
          "name": "",
          "type": "uint256"
        }
      ],
      "stateMutability": "view",
      "type": "function"
    },
    {
      "inputs": [],
      "name": "getInsuranceProviders",
      "outputs": [
        {
          "internalType": "address[]",
          "name": "",
          "type": "address[]"
        }
      ],
      "stateMutability": "view",
      "type": "function"
    },
    {
      "inputs": [
        {
          "internalType": "address",
          "name": "insuree",
          "type": "address"
        }
      ],
      "name": "getInsureeFunds",
      "outputs": [
        {
          "internalType": "uint256",
          "name": "",
          "type": "uint256"
        }
      ],
      "stateMutability": "view",
      "type": "function"
    },
    {
      "inputs": [
        {
          "internalType": "uint256",
          "name": "",
          "type": "uint256"
        },
        {
          "internalType": "address",
          "name": "",
          "type": "address"
        }
      ],
      "name": "hasProvidedLiquidity",
      "outputs": [
        {
          "internalType": "bool",
          "name": "",
          "type": "bool"
        }
      ],
      "stateMutability": "view",
      "type": "function"
    },
    {
      "inputs": [],
      "name": "insuranceId",
      "outputs": [
        {
          "internalType": "uint256",
          "name": "",
          "type": "uint256"
        }
      ],
      "stateMutability": "view",
      "type": "function"
    },
    {
      "inputs": [
        {
          "internalType": "uint256",
          "name": "",
          "type": "uint256"
        }
      ],
      "name": "insuranceliquidity",
      "outputs": [
        {
          "internalType": "uint256",
          "name": "",
          "type": "uint256"
        }
      ],
      "stateMutability": "view",
      "type": "function"
    },
    {
      "inputs": [
        {
          "internalType": "uint256",
          "name": "",
          "type": "uint256"
        },
        {
          "internalType": "uint256",
          "name": "",
          "type": "uint256"
        }
      ],
      "name": "insurancelps",
      "outputs": [
        {
          "internalType": "address",
          "name": "",
          "type": "address"
        }
      ],
      "stateMutability": "view",
      "type": "function"
    },
    {
      "inputs": [
        {
          "internalType": "uint256",
          "name": "",
          "type": "uint256"
        }
      ],
      "name": "insurances",
      "outputs": [
        {
          "internalType": "bool",
          "name": "isRegistered",
          "type": "bool"
        },
        {
          "internalType": "uint256",
          "name": "start",
          "type": "uint256"
        },
        {
          "internalType": "uint256",
          "name": "end",
          "type": "uint256"
        },
        {
          "internalType": "enum InsuranceData.TypeOfInsurance",
          "name": "typeOfIns",
          "type": "uint8"
        },
        {
          "internalType": "address",
          "name": "provider",
          "type": "address"
        },
        {
          "internalType": "string",
          "name": "name",
          "type": "string"
        },
        {
          "internalType": "string",
          "name": "description",
          "type": "string"
        },
        {
          "internalType": "uint256",
          "name": "riskNumerator",
          "type": "uint256"
        },
        {
          "internalType": "uint256",
          "name": "riskDenominator",
          "type": "uint256"
        }
      ],
      "stateMutability": "view",
      "type": "function"
    },
    {
      "inputs": [
        {
          "internalType": "address",
          "name": "registeredInsuranceProviderAddress",
          "type": "address"
        }
      ],
      "name": "isInsuranceProviderRegistered",
      "outputs": [
        {
          "internalType": "bool",
          "name": "",
          "type": "bool"
        }
      ],
      "stateMutability": "view",
      "type": "function"
    },
    {
      "inputs": [
        {
          "internalType": "uint256",
          "name": "insuranceid",
          "type": "uint256"
        }
      ],
      "name": "isNotInsured",
      "outputs": [
        {
          "internalType": "bool",
          "name": "",
          "type": "bool"
        }
      ],
      "stateMutability": "view",
      "type": "function"
    },
    {
      "inputs": [
        {
          "internalType": "uint256",
          "name": "",
          "type": "uint256"
        },
        {
          "internalType": "address",
          "name": "",
          "type": "address"
        }
      ],
      "name": "liquidityperlp",
      "outputs": [
        {
          "internalType": "uint256",
          "name": "",
          "type": "uint256"
        }
      ],
      "stateMutability": "view",
      "type": "function"
    },
    {
      "inputs": [],
      "name": "numFundedInsuranceProviders",
      "outputs": [
        {
          "internalType": "uint8",
          "name": "",
          "type": "uint8"
        }
      ],
      "stateMutability": "view",
      "type": "function"
    },
    {
      "inputs": [],
      "name": "numOfInsuranceProviders",
      "outputs": [
        {
          "internalType": "uint256",
          "name": "count",
          "type": "uint256"
        }
      ],
      "stateMutability": "view",
      "type": "function"
    },
    {
      "inputs": [
        {
          "internalType": "uint256",
          "name": "",
          "type": "uint256"
        }
      ],
      "name": "numliquidityproviders",
      "outputs": [
        {
          "internalType": "uint256",
          "name": "",
          "type": "uint256"
        }
      ],
      "stateMutability": "view",
      "type": "function"
    },
    {
      "inputs": [
        {
          "internalType": "uint256",
          "name": "insuranceid",
          "type": "uint256"
        },
        {
          "internalType": "address",
          "name": "insuree",
          "type": "address"
        }
      ],
      "name": "payout",
      "outputs": [
        {
          "internalType": "uint256",
          "name": "",
          "type": "uint256"
        }
      ],
      "stateMutability": "nonpayable",
      "type": "function"
    },
    {
      "inputs": [
        {
          "internalType": "uint256",
          "name": "",
          "type": "uint256"
        }
      ],
      "name": "providers",
      "outputs": [
        {
          "internalType": "address",
          "name": "",
          "type": "address"
        }
      ],
      "stateMutability": "view",
      "type": "function"
    },
    {
      "inputs": [
        {
          "internalType": "string",
          "name": "_insuranceName",
          "type": "string"
        },
        {
          "internalType": "uint256",
          "name": "_start",
          "type": "uint256"
        },
        {
          "internalType": "uint256",
          "name": "_end",
          "type": "uint256"
        },
        {
          "internalType": "enum InsuranceData.TypeOfInsurance",
          "name": "_typeOfIns",
          "type": "uint8"
        },
        {
          "internalType": "string",
          "name": "_description",
          "type": "string"
        },
        {
          "internalType": "uint256",
          "name": "_riskNumerator",
          "type": "uint256"
        },
        {
          "internalType": "uint256",
          "name": "_riskDenominator",
          "type": "uint256"
        }
      ],
      "name": "registerInsurance",
      "outputs": [
        {
          "internalType": "uint256",
          "name": "",
          "type": "uint256"
        }
      ],
      "stateMutability": "payable",
      "type": "function"
    },
    {
      "inputs": [
        {
          "internalType": "address",
          "name": "_provider",
          "type": "address"
        }
      ],
      "name": "registerInsuranceProvider",
      "outputs": [
        {
          "internalType": "bool",
          "name": "successfulRegistration",
          "type": "bool"
        }
      ],
      "stateMutability": "nonpayable",
      "type": "function"
    },
    {
      "stateMutability": "payable",
      "type": "receive"
    }
  ],
  "bytecode": "0x60806040526000805460ff60a01b1916600160a01b17905534801561002357600080fd5b50600080546001600160a01b031916331781556014556118dc806100486000396000f3fe6080604052600436106101825760003560e01c806360e6c3a2116100d5578063be95e01a11610084578063cfa29c4411610061578063cfa29c44146105b8578063d0beac3f146105e5578063d294cb0f14610612578063d96a094a1461063f57005b8063be95e01a1461054a578063c33c097d1461056a578063cd574b791461057d57005b806383cb0c81116100b257806383cb0c81146104f5578063b6b1ccf01461050a578063b8e12d4e1461052a57005b806360e6c3a2146103f557806369e88be7146104215780636de994c51461044e57005b80634d7fedfa1161013157806352ac183b1161010e57806352ac183b1461039757806359fb49f9146103aa5780635acf77b0146103df57005b80634d7fedfa1461030457806350f3fc811461031957806351ca570a1461035e57005b80632f8ff3a21161015f5780632f8ff3a21461023b578063430605391461027357806347709966146102be57005b806306a019d31461018b57806315bef450146101e1578063212414181461021957005b3661018957005b005b34801561019757600080fd5b506101ce6101a63660046112fc565b73ffffffffffffffffffffffffffffffffffffffff166000908152600e602052604090205490565b6040519081526020015b60405180910390f35b3480156101ed57600080fd5b506101ce6101fc36600461131e565b600d60209081526000928352604080842090915290825290205481565b34801561022557600080fd5b5061022e610652565b6040516101d8919061134a565b34801561024757600080fd5b506101ce6102563660046113a4565b600a60209081526000928352604080842090915290825290205481565b34801561027f57600080fd5b506102ae61028e36600461131e565b600960209081526000928352604080842090915290825290205460ff1681565b60405190151581526020016101d8565b3480156102ca57600080fd5b506102ae6102d93660046112fc565b73ffffffffffffffffffffffffffffffffffffffff1660009081526001602052604090205460ff1690565b34801561031057600080fd5b506003546101ce565b34801561032557600080fd5b506103396103343660046113ce565b6106c1565b60405173ffffffffffffffffffffffffffffffffffffffff90911681526020016101d8565b34801561036a57600080fd5b506102ae6103793660046113ce565b33600090815260116020908152604080832093835292905220541590565b6101ce6103a53660046113ce565b6106f8565b3480156103b657600080fd5b506103ca6103c53660046113ce565b610858565b6040516101d899989796959493929190611443565b3480156103eb57600080fd5b506101ce60145481565b34801561040157600080fd5b5060045461040f9060ff1681565b60405160ff90911681526020016101d8565b34801561042d57600080fd5b506101ce61043c3660046113ce565b60086020526000908152604090205481565b34801561045a57600080fd5b506102ae6104693660046112fc565b73ffffffffffffffffffffffffffffffffffffffff1660008181526001602081905260408220805460ff19168217905560038054808301825592527fc2575a0e9e593c00f959f8c92f12db2869c3395a3b0502d05e2516446f71f85b90910180547fffffffffffffffffffffffff00000000000000000000000000000000000000001690921790915590565b34801561050157600080fd5b5061022e6109d0565b34801561051657600080fd5b506103396105253660046113ce565b610a3d565b34801561053657600080fd5b506103396105453660046114d9565b610a4d565b34801561055657600080fd5b506101ce61056536600461131e565b610a92565b6101ce610578366004611544565b610c07565b34801561058957600080fd5b506102ae610598366004611608565b8051602081830181018051600c8252928201919093012091525460ff1681565b3480156105c457600080fd5b506101ce6105d33660046113ce565b60066020526000908152604090205481565b3480156105f157600080fd5b506101ce6106003660046113ce565b60009081526008602052604090205490565b34801561061e57600080fd5b506101ce61062d3660046112fc565b600e6020526000908152604090205481565b61018961064d3660046113ce565b610f44565b606060058054806020026020016040519081016040528092919081815260200182805480156106b757602002820191906000526020600020905b815473ffffffffffffffffffffffffffffffffffffffff16815260019091019060200180831161068c575b5050505050905090565b600381815481106106d157600080fd5b60009182526020909120015473ffffffffffffffffffffffffffffffffffffffff16905081565b600081815260096020908152604080832033845290915281205460ff166107b25760405162461bcd60e51b815260206004820152604b60248201527f546865206c69717569646974792070726f76696465722068617320616c72656160448201527f64792070726f766973696f6e6564206c697175696469747920666f722074686960648201527f7320696e737572616e6365000000000000000000000000000000000000000000608482015260a4015b60405180910390fd5b60008281526006602052604081208054916107cc836116cf565b90915550506000828152600860205260409020546107eb9034906116e9565b6000838152600860209081526040808320939093556007815282822080546001810182559083528183200180547fffffffffffffffffffffffff00000000000000000000000000000000000000001633908117909155858352600d82528383209083529052203490555090565b600b602052600090815260409020805460018201546002830154600384015460048501805460ff95861696949593949383169361010090930473ffffffffffffffffffffffffffffffffffffffff169291906108b3906116fc565b80601f01602080910402602001604051908101604052809291908181526020018280546108df906116fc565b801561092c5780601f106109015761010080835404028352916020019161092c565b820191906000526020600020905b81548152906001019060200180831161090f57829003601f168201915b505050505090806005018054610941906116fc565b80601f016020809104026020016040519081016040528092919081815260200182805461096d906116fc565b80156109ba5780601f1061098f576101008083540402835291602001916109ba565b820191906000526020600020905b81548152906001019060200180831161099d57829003601f168201915b5050505050908060060154908060070154905089565b606060038054806020026020016040519081016040528092919081815260200182805480156106b75760200282019190600052602060002090815473ffffffffffffffffffffffffffffffffffffffff16815260019091019060200180831161068c575050505050905090565b600581815481106106d157600080fd5b60076020528160005260406000208181548110610a6957600080fd5b60009182526020909120015473ffffffffffffffffffffffffffffffffffffffff169150829050565b600082815260136020908152604080832073ffffffffffffffffffffffffffffffffffffffff8516845290915281205415610b355760405162461bcd60e51b815260206004820152602560248201527f54686520636c69656e742068617320616c726561647920636c61696d6564207060448201527f61796f757400000000000000000000000000000000000000000000000000000060648201526084016107a9565b73ffffffffffffffffffffffffffffffffffffffff82166000818152600a6020908152604080832087845290915280822054905190929183156108fc02918491818181858888f19350505050158015610b92573d6000803e3d6000fd5b50600084815260136020908152604080832073ffffffffffffffffffffffffffffffffffffffff87168085529083529281902084905580519283529082018390527fd1ecb6c48be11bc10ebf5b0c43978edf1b7fcbc3f5adb6a5ea66952d6a73f72a910160405180910390a190505b92915050565b6000803411610c7e5760405162461bcd60e51b815260206004820152603060248201527f54686520696e737572616e63652070726f76696465722073686f756c6420667560448201527f6e642074686520696e737572616e63650000000000000000000000000000000060648201526084016107a9565b604051806101200160405280600115158152602001898152602001888152602001876002811115610cb157610cb16113e7565b81526020013373ffffffffffffffffffffffffffffffffffffffff1681526020018b8b8080601f016020809104026020016040519081016040528093929190818152602001838380828437600092019190915250505090825250604080516020601f8901819004810282018101909252878152918101919088908890819084018382808284376000920182905250938552505050602080830187905260409283018690526014548252600b8152908290208351815490151560ff199182161782559184015160018083019190915592840151600280830191909155606085015160038301805493959194909316918490811115610db057610db06113e7565b0217905550608082015160038201805473ffffffffffffffffffffffffffffffffffffffff909216610100027fffffffffffffffffffffff0000000000000000000000000000000000000000ff90921691909117905560a08201516004820190610e1a9082611787565b5060c08201516005820190610e2f9082611787565b5060e0820151816006015561010082015181600701559050506001600c8b8b604051610e5c929190611847565b9081526040805160209281900383018120805460ff191694151594909417909355601480546000908152600784528281208054600181018255908252848220018054337fffffffffffffffffffffffff000000000000000000000000000000000000000090911681179091558254825260088552838220349081905583548352600d8652848320918352908552929020919091555482527fa1467d518e9fa2c94583b5b96dc6d322c27e6ddfbbc24450b818b91c909046a6910160405180910390a160148054906000610f2e836116cf565b90915550506014549a9950505050505050505050565b336000908152600f6020908152604080832084845290915290205460ff1615610fd55760405162461bcd60e51b815260206004820152603360248201527f54686520636c69656e742068617320616c72656164792074616b656e2074686960448201527f732074797065206f6620696e737572616e63650000000000000000000000000060648201526084016107a9565b6000341161104b5760405162461bcd60e51b815260206004820152602b60248201527f54686520636c69656e742073686f756c642073656e642045544820746f20627560448201527f7920696e737572616e636500000000000000000000000000000000000000000060648201526084016107a9565b6000818152600b60205260408120600701546110679034611857565b60008381526008602052604090205490915081106110c75760405162461bcd60e51b815260206004820152601c60248201527f596f752073686f756c64206275792077697468206c657373204554480000000060448201526064016107a9565b336000818152600a602090815260408083208684528252808320859055838352600f82528083208684528252808320805460ff19166001908117909155601083528184208054918201815584528284200180547fffffffffffffffffffffffff000000000000000000000000000000000000000016851790559282526011815282822085835290529081203490555b60008381526007602052604090205481101561127c57601454600090815260086020908152604080832054868452600d835281842060079093529083208054919291849190869081106111ab576111ab61186e565b600091825260208083209091015473ffffffffffffffffffffffffffffffffffffffff1683528201929092526040019020546111e79190611884565b6111f2906064611857565b905060006112003483611857565b6000868152600760205260409020805491925090849081106112245761122461186e565b600091825260208220015460405173ffffffffffffffffffffffffffffffffffffffff9091169183156108fc02918491818181858888f19350505050158015611271573d6000803e3d6000fd5b505050600101611156565b5060408051338152602081018490527fb54ae6df4548fec2c87618979584a234918d0b316ae59007568ff6be22d7a0bc910160405180910390a1506000908152601360209081526040808320338452909152812055565b803573ffffffffffffffffffffffffffffffffffffffff811681146112f757600080fd5b919050565b60006020828403121561130e57600080fd5b611317826112d3565b9392505050565b6000806040838503121561133157600080fd5b82359150611341602084016112d3565b90509250929050565b6020808252825182820181905260009190848201906040850190845b8181101561139857835173ffffffffffffffffffffffffffffffffffffffff1683529284019291840191600101611366565b50909695505050505050565b600080604083850312156113b757600080fd5b6113c0836112d3565b946020939093013593505050565b6000602082840312156113e057600080fd5b5035919050565b634e487b7160e01b600052602160045260246000fd5b6000815180845260005b8181101561142357602081850181015186830182015201611407565b506000602082860101526020601f19601f83011685010191505092915050565b60006101208b151583528a60208401528960408401526003891061147757634e487b7160e01b600052602160045260246000fd5b88606084015273ffffffffffffffffffffffffffffffffffffffff881660808401528060a08401526114ab818401886113fd565b905082810360c08401526114bf81876113fd565b60e084019590955250506101000152979650505050505050565b600080604083850312156114ec57600080fd5b50508035926020909101359150565b60008083601f84011261150d57600080fd5b50813567ffffffffffffffff81111561152557600080fd5b60208301915083602082850101111561153d57600080fd5b9250929050565b600080600080600080600080600060e08a8c03121561156257600080fd5b893567ffffffffffffffff8082111561157a57600080fd5b6115868d838e016114fb565b909b50995060208c0135985060408c0135975060608c01359150600382106115ad57600080fd5b90955060808b013590808211156115c357600080fd5b506115d08c828d016114fb565b9a9d999c50979a96999598959660a08101359660c09091013595509350505050565b634e487b7160e01b600052604160045260246000fd5b60006020828403121561161a57600080fd5b813567ffffffffffffffff8082111561163257600080fd5b818401915084601f83011261164657600080fd5b813581811115611658576116586115f2565b604051601f8201601f19908116603f01168101908382118183101715611680576116806115f2565b8160405282815287602084870101111561169957600080fd5b826020860160208301376000928101602001929092525095945050505050565b634e487b7160e01b600052601160045260246000fd5b600060001982036116e2576116e26116b9565b5060010190565b80820180821115610c0157610c016116b9565b600181811c9082168061171057607f821691505b60208210810361173057634e487b7160e01b600052602260045260246000fd5b50919050565b601f821115611782576000816000526020600020601f850160051c8101602086101561175f5750805b601f850160051c820191505b8181101561177e5782815560010161176b565b5050505b505050565b815167ffffffffffffffff8111156117a1576117a16115f2565b6117b5816117af84546116fc565b84611736565b602080601f8311600181146117ea57600084156117d25750858301515b600019600386901b1c1916600185901b17855561177e565b600085815260208120601f198616915b82811015611819578886015182559484019460019091019084016117fa565b50858210156118375787850151600019600388901b60f8161c191681555b5050505050600190811b01905550565b8183823760009101908152919050565b8082028115828204841417610c0157610c016116b9565b634e487b7160e01b600052603260045260246000fd5b6000826118a157634e487b7160e01b600052601260045260246000fd5b50049056fea264697066735822122009042f0b7a7798f001af589b3cf1e1b6db7d98b00b935e7c4ccb05b7152fc79364736f6c63430008180033",
  "linkReferences": {},
  "deployedLinkReferences": {}
}